{
	"contracts/PS.sol": {
		"PS": {
			"abi": [
				{
					"inputs": [],
					"stateMutability": "nonpayable",
					"type": "constructor"
				},
				{
					"inputs": [],
					"name": "addMoney",
					"outputs": [],
					"stateMutability": "payable",
					"type": "function"
				},
				{
					"inputs": [
						{
							"internalType": "address",
							"name": "accountAddress",
							"type": "address"
						}
					],
					"name": "authorizeAUser",
					"outputs": [],
					"stateMutability": "nonpayable",
					"type": "function"
				},
				{
					"inputs": [
						{
							"internalType": "address",
							"name": "",
							"type": "address"
						}
					],
					"name": "authorizedUsers",
					"outputs": [
						{
							"internalType": "bool",
							"name": "",
							"type": "bool"
						}
					],
					"stateMutability": "view",
					"type": "function"
				},
				{
					"inputs": [
						{
							"internalType": "address",
							"name": "",
							"type": "address"
						}
					],
					"name": "family",
					"outputs": [
						{
							"internalType": "uint256",
							"name": "",
							"type": "uint256"
						}
					],
					"stateMutability": "view",
					"type": "function"
				},
				{
					"inputs": [],
					"name": "getBalance",
					"outputs": [
						{
							"internalType": "uint256",
							"name": "",
							"type": "uint256"
						}
					],
					"stateMutability": "view",
					"type": "function"
				},
				{
					"inputs": [],
					"name": "payLakhan",
					"outputs": [],
					"stateMutability": "payable",
					"type": "function"
				},
				{
					"inputs": [],
					"name": "payRam",
					"outputs": [],
					"stateMutability": "payable",
					"type": "function"
				},
				{
					"inputs": [
						{
							"internalType": "address",
							"name": "",
							"type": "address"
						}
					],
					"name": "timestamps",
					"outputs": [
						{
							"internalType": "uint256",
							"name": "",
							"type": "uint256"
						}
					],
					"stateMutability": "view",
					"type": "function"
				},
				{
					"inputs": [],
					"name": "transferMoneyToFamily",
					"outputs": [],
					"stateMutability": "payable",
					"type": "function"
				},
				{
					"inputs": [],
					"name": "transferToOwner",
					"outputs": [],
					"stateMutability": "payable",
					"type": "function"
				},
				{
					"inputs": [],
					"name": "viewBalance",
					"outputs": [
						{
							"internalType": "uint256",
							"name": "",
							"type": "uint256"
						}
					],
					"stateMutability": "view",
					"type": "function"
				},
				{
					"inputs": [],
					"name": "viewLakhanBalance",
					"outputs": [
						{
							"internalType": "uint256",
							"name": "",
							"type": "uint256"
						}
					],
					"stateMutability": "view",
					"type": "function"
				},
				{
					"inputs": [],
					"name": "viewRamBalance",
					"outputs": [
						{
							"internalType": "uint256",
							"name": "",
							"type": "uint256"
						}
					],
					"stateMutability": "view",
					"type": "function"
				}
			],
			"devdoc": {
				"kind": "dev",
				"methods": {},
				"version": 1
			},
			"evm": {
				"assembly": "    /* \"contracts/PS.sol\":75:2188  contract PS{... */\n  mstore(0x40, 0x80)\n    /* \"contracts/PS.sol\":152:194  0xAb8483F64d9C6d1EcF9b849Ae677dD3315835cb2 */\n  0xab8483f64d9c6d1ecf9b849ae677dd3315835cb2\n    /* \"contracts/PS.sol\":121:195  address payable ram = payable (0xAb8483F64d9C6d1EcF9b849Ae677dD3315835cb2) */\n  0x01\n  exp(0x0100, 0x00)\n  dup2\n  sload\n  dup2\n  0xffffffffffffffffffffffffffffffffffffffff\n  mul\n  not\n  and\n  swap1\n  dup4\n  0xffffffffffffffffffffffffffffffffffffffff\n  and\n  mul\n  or\n  swap1\n  sstore\n  pop\n    /* \"contracts/PS.sol\":236:278  0x4B20993Bc481177ec7E8f571ceCaE8A9e22C02db */\n  0x4b20993bc481177ec7e8f571cecae8a9e22c02db\n    /* \"contracts/PS.sol\":202:279  address payable lakhan = payable (0x4B20993Bc481177ec7E8f571ceCaE8A9e22C02db) */\n  0x02\n  exp(0x0100, 0x00)\n  dup2\n  sload\n  dup2\n  0xffffffffffffffffffffffffffffffffffffffff\n  mul\n  not\n  and\n  swap1\n  dup4\n  0xffffffffffffffffffffffffffffffffffffffff\n  and\n  mul\n  or\n  swap1\n  sstore\n  pop\n    /* \"contracts/PS.sol\":300:301  0 */\n  0x00\n    /* \"contracts/PS.sol\":286:301  uint ramMoney=0 */\n  0x03\n  sstore\n    /* \"contracts/PS.sol\":325:326  0 */\n  0x00\n    /* \"contracts/PS.sol\":308:326  uint lakhanMoney=0 */\n  0x04\n  sstore\n    /* \"contracts/PS.sol\":355:365  10 seconds */\n  0x0a\n    /* \"contracts/PS.sol\":333:365  uint timeToWithdraw = 10 seconds */\n  0x05\n  sstore\n    /* \"contracts/PS.sol\":523:583  constructor() {... */\n  callvalue\n  dup1\n  iszero\n  tag_1\n  jumpi\n  0x00\n  dup1\n  revert\ntag_1:\n  pop\n    /* \"contracts/PS.sol\":564:574  msg.sender */\n  caller\n    /* \"contracts/PS.sol\":548:553  owner */\n  0x00\n  dup1\n    /* \"contracts/PS.sol\":548:575  owner = payable(msg.sender) */\n  0x0100\n  exp\n  dup2\n  sload\n  dup2\n  0xffffffffffffffffffffffffffffffffffffffff\n  mul\n  not\n  and\n  swap1\n  dup4\n  0xffffffffffffffffffffffffffffffffffffffff\n  and\n  mul\n  or\n  swap1\n  sstore\n  pop\n    /* \"contracts/PS.sol\":75:2188  contract PS{... */\n  dataSize(sub_0)\n  dup1\n  dataOffset(sub_0)\n  0x00\n  codecopy\n  0x00\n  return\nstop\n\nsub_0: assembly {\n        /* \"contracts/PS.sol\":75:2188  contract PS{... */\n      mstore(0x40, 0x80)\n      jumpi(tag_1, lt(calldatasize, 0x04))\n      shr(0xe0, calldataload(0x00))\n      dup1\n      0x72c37a7c\n      gt\n      tag_15\n      jumpi\n      dup1\n      0x84dff381\n      gt\n      tag_16\n      jumpi\n      dup1\n      0x84dff381\n      eq\n      tag_11\n      jumpi\n      dup1\n      0xa1f3f31b\n      eq\n      tag_12\n      jumpi\n      dup1\n      0xe9c98e68\n      eq\n      tag_13\n      jumpi\n      dup1\n      0xe9e717da\n      eq\n      tag_14\n      jumpi\n      jump(tag_1)\n    tag_16:\n      dup1\n      0x72c37a7c\n      eq\n      tag_8\n      jumpi\n      dup1\n      0x7634da4b\n      eq\n      tag_9\n      jumpi\n      dup1\n      0x848a88d8\n      eq\n      tag_10\n      jumpi\n      jump(tag_1)\n    tag_15:\n      dup1\n      0x12065fe0\n      eq\n      tag_2\n      jumpi\n      dup1\n      0x1828983a\n      eq\n      tag_3\n      jumpi\n      dup1\n      0x1b3f4842\n      eq\n      tag_4\n      jumpi\n      dup1\n      0x2d90ae94\n      eq\n      tag_5\n      jumpi\n      dup1\n      0x3ff1e05b\n      eq\n      tag_6\n      jumpi\n      dup1\n      0x457590c7\n      eq\n      tag_7\n      jumpi\n    tag_1:\n      0x00\n      dup1\n      revert\n        /* \"contracts/PS.sol\":1309:1400  function getBalance() public view returns(uint){... */\n    tag_2:\n      callvalue\n      dup1\n      iszero\n      tag_17\n      jumpi\n      0x00\n      dup1\n      revert\n    tag_17:\n      pop\n      tag_18\n      tag_19\n      jump\t// in\n    tag_18:\n      mload(0x40)\n      tag_20\n      swap2\n      swap1\n      tag_21\n      jump\t// in\n    tag_20:\n      mload(0x40)\n      dup1\n      swap2\n      sub\n      swap1\n      return\n        /* \"contracts/PS.sol\":418:466  mapping (address => bool) public authorizedUsers */\n    tag_3:\n      callvalue\n      dup1\n      iszero\n      tag_22\n      jumpi\n      0x00\n      dup1\n      revert\n    tag_22:\n      pop\n      tag_23\n      0x04\n      dup1\n      calldatasize\n      sub\n      dup2\n      add\n      swap1\n      tag_24\n      swap2\n      swap1\n      tag_25\n      jump\t// in\n    tag_24:\n      tag_26\n      jump\t// in\n    tag_23:\n      mload(0x40)\n      tag_27\n      swap2\n      swap1\n      tag_28\n      jump\t// in\n    tag_27:\n      mload(0x40)\n      dup1\n      swap2\n      sub\n      swap1\n      return\n        /* \"contracts/PS.sol\":591:628  function addMoney() public payable {} */\n    tag_4:\n      tag_29\n      tag_30\n      jump\t// in\n    tag_29:\n      stop\n        /* \"contracts/PS.sol\":2046:2185  function transferToOwner() public payable{... */\n    tag_5:\n      tag_31\n      tag_32\n      jump\t// in\n    tag_31:\n      stop\n        /* \"contracts/PS.sol\":1408:1504  function viewBalance() public view returns(uint) {... */\n    tag_6:\n      callvalue\n      dup1\n      iszero\n      tag_33\n      jumpi\n      0x00\n      dup1\n      revert\n    tag_33:\n      pop\n      tag_34\n      tag_35\n      jump\t// in\n    tag_34:\n      mload(0x40)\n      tag_36\n      swap2\n      swap1\n      tag_21\n      jump\t// in\n    tag_36:\n      mload(0x40)\n      dup1\n      swap2\n      sub\n      swap1\n      return\n        /* \"contracts/PS.sol\":1609:1704  function viewLakhanBalance() public view returns(uint) {... */\n    tag_7:\n      callvalue\n      dup1\n      iszero\n      tag_37\n      jumpi\n      0x00\n      dup1\n      revert\n    tag_37:\n      pop\n      tag_38\n      tag_39\n      jump\t// in\n    tag_38:\n      mload(0x40)\n      tag_40\n      swap2\n      swap1\n      tag_21\n      jump\t// in\n    tag_40:\n      mload(0x40)\n      dup1\n      swap2\n      sub\n      swap1\n      return\n        /* \"contracts/PS.sol\":636:860  function authorizeAUser(address accountAddress) public {... */\n    tag_8:\n      callvalue\n      dup1\n      iszero\n      tag_41\n      jumpi\n      0x00\n      dup1\n      revert\n    tag_41:\n      pop\n      tag_42\n      0x04\n      dup1\n      calldatasize\n      sub\n      dup2\n      add\n      swap1\n      tag_43\n      swap2\n      swap1\n      tag_25\n      jump\t// in\n    tag_43:\n      tag_44\n      jump\t// in\n    tag_42:\n      stop\n        /* \"contracts/PS.sol\":868:1301  function transferMoneyToFamily() public payable  {... */\n    tag_9:\n      tag_45\n      tag_46\n      jump\t// in\n    tag_45:\n      stop\n        /* \"contracts/PS.sol\":372:411  mapping (address => uint) public family */\n    tag_10:\n      callvalue\n      dup1\n      iszero\n      tag_47\n      jumpi\n      0x00\n      dup1\n      revert\n    tag_47:\n      pop\n      tag_48\n      0x04\n      dup1\n      calldatasize\n      sub\n      dup2\n      add\n      swap1\n      tag_49\n      swap2\n      swap1\n      tag_25\n      jump\t// in\n    tag_49:\n      tag_50\n      jump\t// in\n    tag_48:\n      mload(0x40)\n      tag_51\n      swap2\n      swap1\n      tag_21\n      jump\t// in\n    tag_51:\n      mload(0x40)\n      dup1\n      swap2\n      sub\n      swap1\n      return\n        /* \"contracts/PS.sol\":1712:1865  function payRam() public payable{... */\n    tag_11:\n      tag_52\n      tag_53\n      jump\t// in\n    tag_52:\n      stop\n        /* \"contracts/PS.sol\":1873:2038  function payLakhan() public payable {... */\n    tag_12:\n      tag_54\n      tag_55\n      jump\t// in\n    tag_54:\n      stop\n        /* \"contracts/PS.sol\":473:516  mapping (address => uint) public timestamps */\n    tag_13:\n      callvalue\n      dup1\n      iszero\n      tag_56\n      jumpi\n      0x00\n      dup1\n      revert\n    tag_56:\n      pop\n      tag_57\n      0x04\n      dup1\n      calldatasize\n      sub\n      dup2\n      add\n      swap1\n      tag_58\n      swap2\n      swap1\n      tag_25\n      jump\t// in\n    tag_58:\n      tag_59\n      jump\t// in\n    tag_57:\n      mload(0x40)\n      tag_60\n      swap2\n      swap1\n      tag_21\n      jump\t// in\n    tag_60:\n      mload(0x40)\n      dup1\n      swap2\n      sub\n      swap1\n      return\n        /* \"contracts/PS.sol\":1512:1601  function viewRamBalance() public view returns(uint) {... */\n    tag_14:\n      callvalue\n      dup1\n      iszero\n      tag_61\n      jumpi\n      0x00\n      dup1\n      revert\n    tag_61:\n      pop\n      tag_62\n      tag_63\n      jump\t// in\n    tag_62:\n      mload(0x40)\n      tag_64\n      swap2\n      swap1\n      tag_21\n      jump\t// in\n    tag_64:\n      mload(0x40)\n      dup1\n      swap2\n      sub\n      swap1\n      return\n        /* \"contracts/PS.sol\":1309:1400  function getBalance() public view returns(uint){... */\n    tag_19:\n        /* \"contracts/PS.sol\":1351:1355  uint */\n      0x00\n        /* \"contracts/PS.sol\":1374:1384  msg.sender */\n      caller\n        /* \"contracts/PS.sol\":1374:1392  msg.sender.balance */\n      0xffffffffffffffffffffffffffffffffffffffff\n      and\n      balance\n        /* \"contracts/PS.sol\":1367:1392  return msg.sender.balance */\n      swap1\n      pop\n        /* \"contracts/PS.sol\":1309:1400  function getBalance() public view returns(uint){... */\n      swap1\n      jump\t// out\n        /* \"contracts/PS.sol\":418:466  mapping (address => bool) public authorizedUsers */\n    tag_26:\n      mstore(0x20, 0x07)\n      dup1\n      0x00\n      mstore\n      keccak256(0x00, 0x40)\n      0x00\n      swap2\n      pop\n      sload\n      swap1\n      0x0100\n      exp\n      swap1\n      div\n      0xff\n      and\n      dup2\n      jump\t// out\n        /* \"contracts/PS.sol\":591:628  function addMoney() public payable {} */\n    tag_30:\n      jump\t// out\n        /* \"contracts/PS.sol\":2046:2185  function transferToOwner() public payable{... */\n    tag_32:\n        /* \"contracts/PS.sol\":2115:2125  msg.sender */\n      caller\n        /* \"contracts/PS.sol\":2106:2125  owner == msg.sender */\n      0xffffffffffffffffffffffffffffffffffffffff\n      and\n        /* \"contracts/PS.sol\":2106:2111  owner */\n      0x00\n      dup1\n      sload\n      swap1\n      0x0100\n      exp\n      swap1\n      div\n      0xffffffffffffffffffffffffffffffffffffffff\n      and\n        /* \"contracts/PS.sol\":2106:2125  owner == msg.sender */\n      0xffffffffffffffffffffffffffffffffffffffff\n      and\n      eq\n        /* \"contracts/PS.sol\":2098:2143  require(owner == msg.sender,\"Not Authorized\") */\n      tag_68\n      jumpi\n      mload(0x40)\n      0x08c379a000000000000000000000000000000000000000000000000000000000\n      dup2\n      mstore\n      0x04\n      add\n      tag_69\n      swap1\n      tag_70\n      jump\t// in\n    tag_69:\n      mload(0x40)\n      dup1\n      swap2\n      sub\n      swap1\n      revert\n    tag_68:\n        /* \"contracts/PS.sol\":2154:2159  owner */\n      0x00\n      dup1\n      sload\n      swap1\n      0x0100\n      exp\n      swap1\n      div\n      0xffffffffffffffffffffffffffffffffffffffff\n      and\n        /* \"contracts/PS.sol\":2154:2168  owner.transfer */\n      0xffffffffffffffffffffffffffffffffffffffff\n      and\n        /* \"contracts/PS.sol\":2154:2177  owner.transfer(1 ether) */\n      0x08fc\n        /* \"contracts/PS.sol\":2169:2176  1 ether */\n      0x0de0b6b3a7640000\n        /* \"contracts/PS.sol\":2154:2177  owner.transfer(1 ether) */\n      swap1\n      dup2\n      iszero\n      mul\n      swap1\n      mload(0x40)\n      0x00\n      mload(0x40)\n      dup1\n      dup4\n      sub\n      dup2\n      dup6\n      dup9\n      dup9\n      call\n      swap4\n      pop\n      pop\n      pop\n      pop\n      iszero\n      dup1\n      iszero\n      tag_72\n      jumpi\n      returndatasize\n      0x00\n      dup1\n      returndatacopy\n      revert(0x00, returndatasize)\n    tag_72:\n      pop\n        /* \"contracts/PS.sol\":2046:2185  function transferToOwner() public payable{... */\n      jump\t// out\n        /* \"contracts/PS.sol\":1408:1504  function viewBalance() public view returns(uint) {... */\n    tag_35:\n        /* \"contracts/PS.sol\":1451:1455  uint */\n      0x00\n        /* \"contracts/PS.sol\":1475:1496  address(this).balance */\n      selfbalance\n        /* \"contracts/PS.sol\":1468:1496  return address(this).balance */\n      swap1\n      pop\n        /* \"contracts/PS.sol\":1408:1504  function viewBalance() public view returns(uint) {... */\n      swap1\n      jump\t// out\n        /* \"contracts/PS.sol\":1609:1704  function viewLakhanBalance() public view returns(uint) {... */\n    tag_39:\n        /* \"contracts/PS.sol\":1658:1662  uint */\n      0x00\n        /* \"contracts/PS.sol\":1682:1688  lakhan */\n      0x02\n      0x00\n      swap1\n      sload\n      swap1\n      0x0100\n      exp\n      swap1\n      div\n      0xffffffffffffffffffffffffffffffffffffffff\n      and\n        /* \"contracts/PS.sol\":1682:1696  lakhan.balance */\n      0xffffffffffffffffffffffffffffffffffffffff\n      and\n      balance\n        /* \"contracts/PS.sol\":1675:1696  return lakhan.balance */\n      swap1\n      pop\n        /* \"contracts/PS.sol\":1609:1704  function viewLakhanBalance() public view returns(uint) {... */\n      swap1\n      jump\t// out\n        /* \"contracts/PS.sol\":636:860  function authorizeAUser(address accountAddress) public {... */\n    tag_44:\n        /* \"contracts/PS.sol\":719:729  msg.sender */\n      caller\n        /* \"contracts/PS.sol\":710:729  owner == msg.sender */\n      0xffffffffffffffffffffffffffffffffffffffff\n      and\n        /* \"contracts/PS.sol\":710:715  owner */\n      0x00\n      dup1\n      sload\n      swap1\n      0x0100\n      exp\n      swap1\n      div\n      0xffffffffffffffffffffffffffffffffffffffff\n      and\n        /* \"contracts/PS.sol\":710:729  owner == msg.sender */\n      0xffffffffffffffffffffffffffffffffffffffff\n      and\n      eq\n        /* \"contracts/PS.sol\":702:748  require(owner == msg.sender, \"Not Authorized\") */\n      tag_76\n      jumpi\n      mload(0x40)\n      0x08c379a000000000000000000000000000000000000000000000000000000000\n      dup2\n      mstore\n      0x04\n      add\n      tag_77\n      swap1\n      tag_70\n      jump\t// in\n    tag_77:\n      mload(0x40)\n      dup1\n      swap2\n      sub\n      swap1\n      revert\n    tag_76:\n        /* \"contracts/PS.sol\":793:797  true */\n      0x01\n        /* \"contracts/PS.sol\":759:774  authorizedUsers */\n      0x07\n        /* \"contracts/PS.sol\":759:790  authorizedUsers[accountAddress] */\n      0x00\n        /* \"contracts/PS.sol\":775:789  accountAddress */\n      dup4\n        /* \"contracts/PS.sol\":759:790  authorizedUsers[accountAddress] */\n      0xffffffffffffffffffffffffffffffffffffffff\n      and\n      0xffffffffffffffffffffffffffffffffffffffff\n      and\n      dup2\n      mstore\n      0x20\n      add\n      swap1\n      dup2\n      mstore\n      0x20\n      add\n      0x00\n      keccak256\n      0x00\n        /* \"contracts/PS.sol\":759:797  authorizedUsers[accountAddress] = true */\n      0x0100\n      exp\n      dup2\n      sload\n      dup2\n      0xff\n      mul\n      not\n      and\n      swap1\n      dup4\n      iszero\n      iszero\n      mul\n      or\n      swap1\n      sstore\n      pop\n        /* \"contracts/PS.sol\":837:852  block.timestamp */\n      timestamp\n        /* \"contracts/PS.sol\":808:818  timestamps */\n      0x08\n        /* \"contracts/PS.sol\":808:834  timestamps[accountAddress] */\n      0x00\n        /* \"contracts/PS.sol\":819:833  accountAddress */\n      dup4\n        /* \"contracts/PS.sol\":808:834  timestamps[accountAddress] */\n      0xffffffffffffffffffffffffffffffffffffffff\n      and\n      0xffffffffffffffffffffffffffffffffffffffff\n      and\n      dup2\n      mstore\n      0x20\n      add\n      swap1\n      dup2\n      mstore\n      0x20\n      add\n      0x00\n      keccak256\n        /* \"contracts/PS.sol\":808:852  timestamps[accountAddress] = block.timestamp */\n      dup2\n      swap1\n      sstore\n      pop\n        /* \"contracts/PS.sol\":636:860  function authorizeAUser(address accountAddress) public {... */\n      pop\n      jump\t// out\n        /* \"contracts/PS.sol\":868:1301  function transferMoneyToFamily() public payable  {... */\n    tag_46:\n        /* \"contracts/PS.sol\":958:959  4 */\n      0x04\n        /* \"contracts/PS.sol\":936:942  family */\n      0x06\n        /* \"contracts/PS.sol\":936:954  family[msg.sender] */\n      0x00\n        /* \"contracts/PS.sol\":943:953  msg.sender */\n      caller\n        /* \"contracts/PS.sol\":936:954  family[msg.sender] */\n      0xffffffffffffffffffffffffffffffffffffffff\n      and\n      0xffffffffffffffffffffffffffffffffffffffff\n      and\n      dup2\n      mstore\n      0x20\n      add\n      swap1\n      dup2\n      mstore\n      0x20\n      add\n      0x00\n      keccak256\n      sload\n        /* \"contracts/PS.sol\":936:959  family[msg.sender] <= 4 */\n      gt\n      iszero\n        /* \"contracts/PS.sol\":928:980  require(family[msg.sender] <= 4, \"Enough is enough\") */\n      tag_79\n      jumpi\n      mload(0x40)\n      0x08c379a000000000000000000000000000000000000000000000000000000000\n      dup2\n      mstore\n      0x04\n      add\n      tag_80\n      swap1\n      tag_81\n      jump\t// in\n    tag_80:\n      mload(0x40)\n      dup1\n      swap2\n      sub\n      swap1\n      revert\n    tag_79:\n        /* \"contracts/PS.sol\":1029:1033  true */\n      0x01\n        /* \"contracts/PS.sol\":999:1033  authorizedUsers[msg.sender]== true */\n      iszero\n      iszero\n        /* \"contracts/PS.sol\":999:1014  authorizedUsers */\n      0x07\n        /* \"contracts/PS.sol\":999:1026  authorizedUsers[msg.sender] */\n      0x00\n        /* \"contracts/PS.sol\":1015:1025  msg.sender */\n      caller\n        /* \"contracts/PS.sol\":999:1026  authorizedUsers[msg.sender] */\n      0xffffffffffffffffffffffffffffffffffffffff\n      and\n      0xffffffffffffffffffffffffffffffffffffffff\n      and\n      dup2\n      mstore\n      0x20\n      add\n      swap1\n      dup2\n      mstore\n      0x20\n      add\n      0x00\n      keccak256\n      0x00\n      swap1\n      sload\n      swap1\n      0x0100\n      exp\n      swap1\n      div\n      0xff\n      and\n        /* \"contracts/PS.sol\":999:1033  authorizedUsers[msg.sender]== true */\n      iszero\n      iszero\n      eq\n        /* \"contracts/PS.sol\":991:1056  require(authorizedUsers[msg.sender]== true,\"User Not Authorized\") */\n      tag_82\n      jumpi\n      mload(0x40)\n      0x08c379a000000000000000000000000000000000000000000000000000000000\n      dup2\n      mstore\n      0x04\n      add\n      tag_83\n      swap1\n      tag_84\n      jump\t// in\n    tag_83:\n      mload(0x40)\n      dup1\n      swap2\n      sub\n      swap1\n      revert\n    tag_82:\n        /* \"contracts/PS.sol\":1119:1133  timeToWithdraw */\n      sload(0x05)\n        /* \"contracts/PS.sol\":1093:1103  timestamps */\n      0x08\n        /* \"contracts/PS.sol\":1093:1115  timestamps[msg.sender] */\n      0x00\n        /* \"contracts/PS.sol\":1104:1114  msg.sender */\n      caller\n        /* \"contracts/PS.sol\":1093:1115  timestamps[msg.sender] */\n      0xffffffffffffffffffffffffffffffffffffffff\n      and\n      0xffffffffffffffffffffffffffffffffffffffff\n      and\n      dup2\n      mstore\n      0x20\n      add\n      swap1\n      dup2\n      mstore\n      0x20\n      add\n      0x00\n      keccak256\n      sload\n        /* \"contracts/PS.sol\":1075:1090  block.timestamp */\n      timestamp\n        /* \"contracts/PS.sol\":1075:1115  block.timestamp - timestamps[msg.sender] */\n      tag_85\n      swap2\n      swap1\n      tag_86\n      jump\t// in\n    tag_85:\n        /* \"contracts/PS.sol\":1075:1133  block.timestamp - timestamps[msg.sender] >= timeToWithdraw */\n      lt\n      iszero\n        /* \"contracts/PS.sol\":1067:1161  require(block.timestamp - timestamps[msg.sender] >= timeToWithdraw , \"Not Enough Time Passed\") */\n      tag_87\n      jumpi\n      mload(0x40)\n      0x08c379a000000000000000000000000000000000000000000000000000000000\n      dup2\n      mstore\n      0x04\n      add\n      tag_88\n      swap1\n      tag_89\n      jump\t// in\n    tag_88:\n      mload(0x40)\n      dup1\n      swap2\n      sub\n      swap1\n      revert\n    tag_87:\n        /* \"contracts/PS.sol\":1193:1194  1 */\n      0x01\n        /* \"contracts/PS.sol\":1172:1178  family */\n      0x06\n        /* \"contracts/PS.sol\":1172:1190  family[msg.sender] */\n      0x00\n        /* \"contracts/PS.sol\":1179:1189  msg.sender */\n      caller\n        /* \"contracts/PS.sol\":1172:1190  family[msg.sender] */\n      0xffffffffffffffffffffffffffffffffffffffff\n      and\n      0xffffffffffffffffffffffffffffffffffffffff\n      and\n      dup2\n      mstore\n      0x20\n      add\n      swap1\n      dup2\n      mstore\n      0x20\n      add\n      0x00\n      keccak256\n      0x00\n        /* \"contracts/PS.sol\":1172:1194  family[msg.sender] +=1 */\n      dup3\n      dup3\n      sload\n      tag_90\n      swap2\n      swap1\n      tag_91\n      jump\t// in\n    tag_90:\n      swap3\n      pop\n      pop\n      dup2\n      swap1\n      sstore\n      pop\n        /* \"contracts/PS.sol\":1213:1223  msg.sender */\n      caller\n        /* \"contracts/PS.sol\":1205:1233  payable(msg.sender).transfer */\n      0xffffffffffffffffffffffffffffffffffffffff\n      and\n        /* \"contracts/PS.sol\":1205:1242  payable(msg.sender).transfer(1 ether) */\n      0x08fc\n        /* \"contracts/PS.sol\":1234:1241  1 ether */\n      0x0de0b6b3a7640000\n        /* \"contracts/PS.sol\":1205:1242  payable(msg.sender).transfer(1 ether) */\n      swap1\n      dup2\n      iszero\n      mul\n      swap1\n      mload(0x40)\n      0x00\n      mload(0x40)\n      dup1\n      dup4\n      sub\n      dup2\n      dup6\n      dup9\n      dup9\n      call\n      swap4\n      pop\n      pop\n      pop\n      pop\n      iszero\n      dup1\n      iszero\n      tag_93\n      jumpi\n      returndatasize\n      0x00\n      dup1\n      returndatacopy\n      revert(0x00, returndatasize)\n    tag_93:\n      pop\n        /* \"contracts/PS.sol\":1278:1293  block.timestamp */\n      timestamp\n        /* \"contracts/PS.sol\":1253:1263  timestamps */\n      0x08\n        /* \"contracts/PS.sol\":1253:1275  timestamps[msg.sender] */\n      0x00\n        /* \"contracts/PS.sol\":1264:1274  msg.sender */\n      caller\n        /* \"contracts/PS.sol\":1253:1275  timestamps[msg.sender] */\n      0xffffffffffffffffffffffffffffffffffffffff\n      and\n      0xffffffffffffffffffffffffffffffffffffffff\n      and\n      dup2\n      mstore\n      0x20\n      add\n      swap1\n      dup2\n      mstore\n      0x20\n      add\n      0x00\n      keccak256\n        /* \"contracts/PS.sol\":1253:1293  timestamps[msg.sender] = block.timestamp */\n      dup2\n      swap1\n      sstore\n      pop\n        /* \"contracts/PS.sol\":868:1301  function transferMoneyToFamily() public payable  {... */\n      jump\t// out\n        /* \"contracts/PS.sol\":372:411  mapping (address => uint) public family */\n    tag_50:\n      mstore(0x20, 0x06)\n      dup1\n      0x00\n      mstore\n      keccak256(0x00, 0x40)\n      0x00\n      swap2\n      pop\n      swap1\n      pop\n      sload\n      dup2\n      jump\t// out\n        /* \"contracts/PS.sol\":1712:1865  function payRam() public payable{... */\n    tag_53:\n        /* \"contracts/PS.sol\":1776:1777  4 */\n      0x04\n        /* \"contracts/PS.sol\":1763:1771  ramMoney */\n      sload(0x03)\n        /* \"contracts/PS.sol\":1763:1777  ramMoney <=  4 */\n      gt\n      iszero\n        /* \"contracts/PS.sol\":1755:1802  require(ramMoney <=  4, \"Money limit exceeded\") */\n      tag_95\n      jumpi\n      mload(0x40)\n      0x08c379a000000000000000000000000000000000000000000000000000000000\n      dup2\n      mstore\n      0x04\n      add\n      tag_96\n      swap1\n      tag_97\n      jump\t// in\n    tag_96:\n      mload(0x40)\n      dup1\n      swap2\n      sub\n      swap1\n      revert\n    tag_95:\n        /* \"contracts/PS.sol\":1824:1825  1 */\n      0x01\n        /* \"contracts/PS.sol\":1813:1821  ramMoney */\n      0x03\n      0x00\n        /* \"contracts/PS.sol\":1813:1825  ramMoney +=1 */\n      dup3\n      dup3\n      sload\n      tag_98\n      swap2\n      swap1\n      tag_91\n      jump\t// in\n    tag_98:\n      swap3\n      pop\n      pop\n      dup2\n      swap1\n      sstore\n      pop\n        /* \"contracts/PS.sol\":1836:1839  ram */\n      0x01\n      0x00\n      swap1\n      sload\n      swap1\n      0x0100\n      exp\n      swap1\n      div\n      0xffffffffffffffffffffffffffffffffffffffff\n      and\n        /* \"contracts/PS.sol\":1836:1848  ram.transfer */\n      0xffffffffffffffffffffffffffffffffffffffff\n      and\n        /* \"contracts/PS.sol\":1836:1857  ram.transfer(1 ether) */\n      0x08fc\n        /* \"contracts/PS.sol\":1849:1856  1 ether */\n      0x0de0b6b3a7640000\n        /* \"contracts/PS.sol\":1836:1857  ram.transfer(1 ether) */\n      swap1\n      dup2\n      iszero\n      mul\n      swap1\n      mload(0x40)\n      0x00\n      mload(0x40)\n      dup1\n      dup4\n      sub\n      dup2\n      dup6\n      dup9\n      dup9\n      call\n      swap4\n      pop\n      pop\n      pop\n      pop\n      iszero\n      dup1\n      iszero\n      tag_100\n      jumpi\n      returndatasize\n      0x00\n      dup1\n      returndatacopy\n      revert(0x00, returndatasize)\n    tag_100:\n      pop\n        /* \"contracts/PS.sol\":1712:1865  function payRam() public payable{... */\n      jump\t// out\n        /* \"contracts/PS.sol\":1873:2038  function payLakhan() public payable {... */\n    tag_55:\n        /* \"contracts/PS.sol\":1943:1944  4 */\n      0x04\n        /* \"contracts/PS.sol\":1928:1939  lakhanMoney */\n      dup1\n      sload\n        /* \"contracts/PS.sol\":1928:1944  lakhanMoney <= 4 */\n      gt\n      iszero\n        /* \"contracts/PS.sol\":1920:1969  require(lakhanMoney <= 4, \"Money Limit exceeded\") */\n      tag_102\n      jumpi\n      mload(0x40)\n      0x08c379a000000000000000000000000000000000000000000000000000000000\n      dup2\n      mstore\n      0x04\n      add\n      tag_103\n      swap1\n      tag_104\n      jump\t// in\n    tag_103:\n      mload(0x40)\n      dup1\n      swap2\n      sub\n      swap1\n      revert\n    tag_102:\n        /* \"contracts/PS.sol\":1994:1995  1 */\n      0x01\n        /* \"contracts/PS.sol\":1980:1991  lakhanMoney */\n      0x04\n      0x00\n        /* \"contracts/PS.sol\":1980:1995  lakhanMoney +=1 */\n      dup3\n      dup3\n      sload\n      tag_105\n      swap2\n      swap1\n      tag_91\n      jump\t// in\n    tag_105:\n      swap3\n      pop\n      pop\n      dup2\n      swap1\n      sstore\n      pop\n        /* \"contracts/PS.sol\":2006:2012  lakhan */\n      0x02\n      0x00\n      swap1\n      sload\n      swap1\n      0x0100\n      exp\n      swap1\n      div\n      0xffffffffffffffffffffffffffffffffffffffff\n      and\n        /* \"contracts/PS.sol\":2006:2021  lakhan.transfer */\n      0xffffffffffffffffffffffffffffffffffffffff\n      and\n        /* \"contracts/PS.sol\":2006:2030  lakhan.transfer(1 ether) */\n      0x08fc\n        /* \"contracts/PS.sol\":2022:2029  1 ether */\n      0x0de0b6b3a7640000\n        /* \"contracts/PS.sol\":2006:2030  lakhan.transfer(1 ether) */\n      swap1\n      dup2\n      iszero\n      mul\n      swap1\n      mload(0x40)\n      0x00\n      mload(0x40)\n      dup1\n      dup4\n      sub\n      dup2\n      dup6\n      dup9\n      dup9\n      call\n      swap4\n      pop\n      pop\n      pop\n      pop\n      iszero\n      dup1\n      iszero\n      tag_107\n      jumpi\n      returndatasize\n      0x00\n      dup1\n      returndatacopy\n      revert(0x00, returndatasize)\n    tag_107:\n      pop\n        /* \"contracts/PS.sol\":1873:2038  function payLakhan() public payable {... */\n      jump\t// out\n        /* \"contracts/PS.sol\":473:516  mapping (address => uint) public timestamps */\n    tag_59:\n      mstore(0x20, 0x08)\n      dup1\n      0x00\n      mstore\n      keccak256(0x00, 0x40)\n      0x00\n      swap2\n      pop\n      swap1\n      pop\n      sload\n      dup2\n      jump\t// out\n        /* \"contracts/PS.sol\":1512:1601  function viewRamBalance() public view returns(uint) {... */\n    tag_63:\n        /* \"contracts/PS.sol\":1558:1562  uint */\n      0x00\n        /* \"contracts/PS.sol\":1582:1585  ram */\n      0x01\n      0x00\n      swap1\n      sload\n      swap1\n      0x0100\n      exp\n      swap1\n      div\n      0xffffffffffffffffffffffffffffffffffffffff\n      and\n        /* \"contracts/PS.sol\":1582:1593  ram.balance */\n      0xffffffffffffffffffffffffffffffffffffffff\n      and\n      balance\n        /* \"contracts/PS.sol\":1575:1593  return ram.balance */\n      swap1\n      pop\n        /* \"contracts/PS.sol\":1512:1601  function viewRamBalance() public view returns(uint) {... */\n      swap1\n      jump\t// out\n        /* \"#utility.yul\":7:84   */\n    tag_109:\n        /* \"#utility.yul\":44:51   */\n      0x00\n        /* \"#utility.yul\":73:78   */\n      dup2\n        /* \"#utility.yul\":62:78   */\n      swap1\n      pop\n        /* \"#utility.yul\":7:84   */\n      swap2\n      swap1\n      pop\n      jump\t// out\n        /* \"#utility.yul\":90:208   */\n    tag_110:\n        /* \"#utility.yul\":177:201   */\n      tag_137\n        /* \"#utility.yul\":195:200   */\n      dup2\n        /* \"#utility.yul\":177:201   */\n      tag_109\n      jump\t// in\n    tag_137:\n        /* \"#utility.yul\":172:175   */\n      dup3\n        /* \"#utility.yul\":165:202   */\n      mstore\n        /* \"#utility.yul\":90:208   */\n      pop\n      pop\n      jump\t// out\n        /* \"#utility.yul\":214:436   */\n    tag_21:\n        /* \"#utility.yul\":307:311   */\n      0x00\n        /* \"#utility.yul\":345:347   */\n      0x20\n        /* \"#utility.yul\":334:343   */\n      dup3\n        /* \"#utility.yul\":330:348   */\n      add\n        /* \"#utility.yul\":322:348   */\n      swap1\n      pop\n        /* \"#utility.yul\":358:429   */\n      tag_139\n        /* \"#utility.yul\":426:427   */\n      0x00\n        /* \"#utility.yul\":415:424   */\n      dup4\n        /* \"#utility.yul\":411:428   */\n      add\n        /* \"#utility.yul\":402:408   */\n      dup5\n        /* \"#utility.yul\":358:429   */\n      tag_110\n      jump\t// in\n    tag_139:\n        /* \"#utility.yul\":214:436   */\n      swap3\n      swap2\n      pop\n      pop\n      jump\t// out\n        /* \"#utility.yul\":523:640   */\n    tag_112:\n        /* \"#utility.yul\":632:633   */\n      0x00\n        /* \"#utility.yul\":629:630   */\n      dup1\n        /* \"#utility.yul\":622:634   */\n      revert\n        /* \"#utility.yul\":769:895   */\n    tag_114:\n        /* \"#utility.yul\":806:813   */\n      0x00\n        /* \"#utility.yul\":846:888   */\n      0xffffffffffffffffffffffffffffffffffffffff\n        /* \"#utility.yul\":839:844   */\n      dup3\n        /* \"#utility.yul\":835:889   */\n      and\n        /* \"#utility.yul\":824:889   */\n      swap1\n      pop\n        /* \"#utility.yul\":769:895   */\n      swap2\n      swap1\n      pop\n      jump\t// out\n        /* \"#utility.yul\":901:997   */\n    tag_115:\n        /* \"#utility.yul\":938:945   */\n      0x00\n        /* \"#utility.yul\":967:991   */\n      tag_145\n        /* \"#utility.yul\":985:990   */\n      dup3\n        /* \"#utility.yul\":967:991   */\n      tag_114\n      jump\t// in\n    tag_145:\n        /* \"#utility.yul\":956:991   */\n      swap1\n      pop\n        /* \"#utility.yul\":901:997   */\n      swap2\n      swap1\n      pop\n      jump\t// out\n        /* \"#utility.yul\":1003:1125   */\n    tag_116:\n        /* \"#utility.yul\":1076:1100   */\n      tag_147\n        /* \"#utility.yul\":1094:1099   */\n      dup2\n        /* \"#utility.yul\":1076:1100   */\n      tag_115\n      jump\t// in\n    tag_147:\n        /* \"#utility.yul\":1069:1074   */\n      dup2\n        /* \"#utility.yul\":1066:1101   */\n      eq\n        /* \"#utility.yul\":1056:1119   */\n      tag_148\n      jumpi\n        /* \"#utility.yul\":1115:1116   */\n      0x00\n        /* \"#utility.yul\":1112:1113   */\n      dup1\n        /* \"#utility.yul\":1105:1117   */\n      revert\n        /* \"#utility.yul\":1056:1119   */\n    tag_148:\n        /* \"#utility.yul\":1003:1125   */\n      pop\n      jump\t// out\n        /* \"#utility.yul\":1131:1270   */\n    tag_117:\n        /* \"#utility.yul\":1177:1182   */\n      0x00\n        /* \"#utility.yul\":1215:1221   */\n      dup2\n        /* \"#utility.yul\":1202:1222   */\n      calldataload\n        /* \"#utility.yul\":1193:1222   */\n      swap1\n      pop\n        /* \"#utility.yul\":1231:1264   */\n      tag_150\n        /* \"#utility.yul\":1258:1263   */\n      dup2\n        /* \"#utility.yul\":1231:1264   */\n      tag_116\n      jump\t// in\n    tag_150:\n        /* \"#utility.yul\":1131:1270   */\n      swap3\n      swap2\n      pop\n      pop\n      jump\t// out\n        /* \"#utility.yul\":1276:1605   */\n    tag_25:\n        /* \"#utility.yul\":1335:1341   */\n      0x00\n        /* \"#utility.yul\":1384:1386   */\n      0x20\n        /* \"#utility.yul\":1372:1381   */\n      dup3\n        /* \"#utility.yul\":1363:1370   */\n      dup5\n        /* \"#utility.yul\":1359:1382   */\n      sub\n        /* \"#utility.yul\":1355:1387   */\n      slt\n        /* \"#utility.yul\":1352:1471   */\n      iszero\n      tag_152\n      jumpi\n        /* \"#utility.yul\":1390:1469   */\n      tag_153\n      tag_112\n      jump\t// in\n    tag_153:\n        /* \"#utility.yul\":1352:1471   */\n    tag_152:\n        /* \"#utility.yul\":1510:1511   */\n      0x00\n        /* \"#utility.yul\":1535:1588   */\n      tag_154\n        /* \"#utility.yul\":1580:1587   */\n      dup5\n        /* \"#utility.yul\":1571:1577   */\n      dup3\n        /* \"#utility.yul\":1560:1569   */\n      dup6\n        /* \"#utility.yul\":1556:1578   */\n      add\n        /* \"#utility.yul\":1535:1588   */\n      tag_117\n      jump\t// in\n    tag_154:\n        /* \"#utility.yul\":1525:1588   */\n      swap2\n      pop\n        /* \"#utility.yul\":1481:1598   */\n      pop\n        /* \"#utility.yul\":1276:1605   */\n      swap3\n      swap2\n      pop\n      pop\n      jump\t// out\n        /* \"#utility.yul\":1611:1701   */\n    tag_118:\n        /* \"#utility.yul\":1645:1652   */\n      0x00\n        /* \"#utility.yul\":1688:1693   */\n      dup2\n        /* \"#utility.yul\":1681:1694   */\n      iszero\n        /* \"#utility.yul\":1674:1695   */\n      iszero\n        /* \"#utility.yul\":1663:1695   */\n      swap1\n      pop\n        /* \"#utility.yul\":1611:1701   */\n      swap2\n      swap1\n      pop\n      jump\t// out\n        /* \"#utility.yul\":1707:1816   */\n    tag_119:\n        /* \"#utility.yul\":1788:1809   */\n      tag_157\n        /* \"#utility.yul\":1803:1808   */\n      dup2\n        /* \"#utility.yul\":1788:1809   */\n      tag_118\n      jump\t// in\n    tag_157:\n        /* \"#utility.yul\":1783:1786   */\n      dup3\n        /* \"#utility.yul\":1776:1810   */\n      mstore\n        /* \"#utility.yul\":1707:1816   */\n      pop\n      pop\n      jump\t// out\n        /* \"#utility.yul\":1822:2032   */\n    tag_28:\n        /* \"#utility.yul\":1909:1913   */\n      0x00\n        /* \"#utility.yul\":1947:1949   */\n      0x20\n        /* \"#utility.yul\":1936:1945   */\n      dup3\n        /* \"#utility.yul\":1932:1950   */\n      add\n        /* \"#utility.yul\":1924:1950   */\n      swap1\n      pop\n        /* \"#utility.yul\":1960:2025   */\n      tag_159\n        /* \"#utility.yul\":2022:2023   */\n      0x00\n        /* \"#utility.yul\":2011:2020   */\n      dup4\n        /* \"#utility.yul\":2007:2024   */\n      add\n        /* \"#utility.yul\":1998:2004   */\n      dup5\n        /* \"#utility.yul\":1960:2025   */\n      tag_119\n      jump\t// in\n    tag_159:\n        /* \"#utility.yul\":1822:2032   */\n      swap3\n      swap2\n      pop\n      pop\n      jump\t// out\n        /* \"#utility.yul\":2038:2207   */\n    tag_120:\n        /* \"#utility.yul\":2122:2133   */\n      0x00\n        /* \"#utility.yul\":2156:2162   */\n      dup3\n        /* \"#utility.yul\":2151:2154   */\n      dup3\n        /* \"#utility.yul\":2144:2163   */\n      mstore\n        /* \"#utility.yul\":2196:2200   */\n      0x20\n        /* \"#utility.yul\":2191:2194   */\n      dup3\n        /* \"#utility.yul\":2187:2201   */\n      add\n        /* \"#utility.yul\":2172:2201   */\n      swap1\n      pop\n        /* \"#utility.yul\":2038:2207   */\n      swap3\n      swap2\n      pop\n      pop\n      jump\t// out\n        /* \"#utility.yul\":2213:2377   */\n    tag_121:\n        /* \"#utility.yul\":2353:2369   */\n      0x4e6f7420417574686f72697a6564000000000000000000000000000000000000\n        /* \"#utility.yul\":2349:2350   */\n      0x00\n        /* \"#utility.yul\":2341:2347   */\n      dup3\n        /* \"#utility.yul\":2337:2351   */\n      add\n        /* \"#utility.yul\":2330:2370   */\n      mstore\n        /* \"#utility.yul\":2213:2377   */\n      pop\n      jump\t// out\n        /* \"#utility.yul\":2383:2749   */\n    tag_122:\n        /* \"#utility.yul\":2525:2528   */\n      0x00\n        /* \"#utility.yul\":2546:2613   */\n      tag_163\n        /* \"#utility.yul\":2610:2612   */\n      0x0e\n        /* \"#utility.yul\":2605:2608   */\n      dup4\n        /* \"#utility.yul\":2546:2613   */\n      tag_120\n      jump\t// in\n    tag_163:\n        /* \"#utility.yul\":2539:2613   */\n      swap2\n      pop\n        /* \"#utility.yul\":2622:2715   */\n      tag_164\n        /* \"#utility.yul\":2711:2714   */\n      dup3\n        /* \"#utility.yul\":2622:2715   */\n      tag_121\n      jump\t// in\n    tag_164:\n        /* \"#utility.yul\":2740:2742   */\n      0x20\n        /* \"#utility.yul\":2735:2738   */\n      dup3\n        /* \"#utility.yul\":2731:2743   */\n      add\n        /* \"#utility.yul\":2724:2743   */\n      swap1\n      pop\n        /* \"#utility.yul\":2383:2749   */\n      swap2\n      swap1\n      pop\n      jump\t// out\n        /* \"#utility.yul\":2755:3174   */\n    tag_70:\n        /* \"#utility.yul\":2921:2925   */\n      0x00\n        /* \"#utility.yul\":2959:2961   */\n      0x20\n        /* \"#utility.yul\":2948:2957   */\n      dup3\n        /* \"#utility.yul\":2944:2962   */\n      add\n        /* \"#utility.yul\":2936:2962   */\n      swap1\n      pop\n        /* \"#utility.yul\":3008:3017   */\n      dup2\n        /* \"#utility.yul\":3002:3006   */\n      dup2\n        /* \"#utility.yul\":2998:3018   */\n      sub\n        /* \"#utility.yul\":2994:2995   */\n      0x00\n        /* \"#utility.yul\":2983:2992   */\n      dup4\n        /* \"#utility.yul\":2979:2996   */\n      add\n        /* \"#utility.yul\":2972:3019   */\n      mstore\n        /* \"#utility.yul\":3036:3167   */\n      tag_166\n        /* \"#utility.yul\":3162:3166   */\n      dup2\n        /* \"#utility.yul\":3036:3167   */\n      tag_122\n      jump\t// in\n    tag_166:\n        /* \"#utility.yul\":3028:3167   */\n      swap1\n      pop\n        /* \"#utility.yul\":2755:3174   */\n      swap2\n      swap1\n      pop\n      jump\t// out\n        /* \"#utility.yul\":3180:3346   */\n    tag_123:\n        /* \"#utility.yul\":3320:3338   */\n      0x456e6f75676820697320656e6f75676800000000000000000000000000000000\n        /* \"#utility.yul\":3316:3317   */\n      0x00\n        /* \"#utility.yul\":3308:3314   */\n      dup3\n        /* \"#utility.yul\":3304:3318   */\n      add\n        /* \"#utility.yul\":3297:3339   */\n      mstore\n        /* \"#utility.yul\":3180:3346   */\n      pop\n      jump\t// out\n        /* \"#utility.yul\":3352:3718   */\n    tag_124:\n        /* \"#utility.yul\":3494:3497   */\n      0x00\n        /* \"#utility.yul\":3515:3582   */\n      tag_169\n        /* \"#utility.yul\":3579:3581   */\n      0x10\n        /* \"#utility.yul\":3574:3577   */\n      dup4\n        /* \"#utility.yul\":3515:3582   */\n      tag_120\n      jump\t// in\n    tag_169:\n        /* \"#utility.yul\":3508:3582   */\n      swap2\n      pop\n        /* \"#utility.yul\":3591:3684   */\n      tag_170\n        /* \"#utility.yul\":3680:3683   */\n      dup3\n        /* \"#utility.yul\":3591:3684   */\n      tag_123\n      jump\t// in\n    tag_170:\n        /* \"#utility.yul\":3709:3711   */\n      0x20\n        /* \"#utility.yul\":3704:3707   */\n      dup3\n        /* \"#utility.yul\":3700:3712   */\n      add\n        /* \"#utility.yul\":3693:3712   */\n      swap1\n      pop\n        /* \"#utility.yul\":3352:3718   */\n      swap2\n      swap1\n      pop\n      jump\t// out\n        /* \"#utility.yul\":3724:4143   */\n    tag_81:\n        /* \"#utility.yul\":3890:3894   */\n      0x00\n        /* \"#utility.yul\":3928:3930   */\n      0x20\n        /* \"#utility.yul\":3917:3926   */\n      dup3\n        /* \"#utility.yul\":3913:3931   */\n      add\n        /* \"#utility.yul\":3905:3931   */\n      swap1\n      pop\n        /* \"#utility.yul\":3977:3986   */\n      dup2\n        /* \"#utility.yul\":3971:3975   */\n      dup2\n        /* \"#utility.yul\":3967:3987   */\n      sub\n        /* \"#utility.yul\":3963:3964   */\n      0x00\n        /* \"#utility.yul\":3952:3961   */\n      dup4\n        /* \"#utility.yul\":3948:3965   */\n      add\n        /* \"#utility.yul\":3941:3988   */\n      mstore\n        /* \"#utility.yul\":4005:4136   */\n      tag_172\n        /* \"#utility.yul\":4131:4135   */\n      dup2\n        /* \"#utility.yul\":4005:4136   */\n      tag_124\n      jump\t// in\n    tag_172:\n        /* \"#utility.yul\":3997:4136   */\n      swap1\n      pop\n        /* \"#utility.yul\":3724:4143   */\n      swap2\n      swap1\n      pop\n      jump\t// out\n        /* \"#utility.yul\":4149:4318   */\n    tag_125:\n        /* \"#utility.yul\":4289:4310   */\n      0x55736572204e6f7420417574686f72697a656400000000000000000000000000\n        /* \"#utility.yul\":4285:4286   */\n      0x00\n        /* \"#utility.yul\":4277:4283   */\n      dup3\n        /* \"#utility.yul\":4273:4287   */\n      add\n        /* \"#utility.yul\":4266:4311   */\n      mstore\n        /* \"#utility.yul\":4149:4318   */\n      pop\n      jump\t// out\n        /* \"#utility.yul\":4324:4690   */\n    tag_126:\n        /* \"#utility.yul\":4466:4469   */\n      0x00\n        /* \"#utility.yul\":4487:4554   */\n      tag_175\n        /* \"#utility.yul\":4551:4553   */\n      0x13\n        /* \"#utility.yul\":4546:4549   */\n      dup4\n        /* \"#utility.yul\":4487:4554   */\n      tag_120\n      jump\t// in\n    tag_175:\n        /* \"#utility.yul\":4480:4554   */\n      swap2\n      pop\n        /* \"#utility.yul\":4563:4656   */\n      tag_176\n        /* \"#utility.yul\":4652:4655   */\n      dup3\n        /* \"#utility.yul\":4563:4656   */\n      tag_125\n      jump\t// in\n    tag_176:\n        /* \"#utility.yul\":4681:4683   */\n      0x20\n        /* \"#utility.yul\":4676:4679   */\n      dup3\n        /* \"#utility.yul\":4672:4684   */\n      add\n        /* \"#utility.yul\":4665:4684   */\n      swap1\n      pop\n        /* \"#utility.yul\":4324:4690   */\n      swap2\n      swap1\n      pop\n      jump\t// out\n        /* \"#utility.yul\":4696:5115   */\n    tag_84:\n        /* \"#utility.yul\":4862:4866   */\n      0x00\n        /* \"#utility.yul\":4900:4902   */\n      0x20\n        /* \"#utility.yul\":4889:4898   */\n      dup3\n        /* \"#utility.yul\":4885:4903   */\n      add\n        /* \"#utility.yul\":4877:4903   */\n      swap1\n      pop\n        /* \"#utility.yul\":4949:4958   */\n      dup2\n        /* \"#utility.yul\":4943:4947   */\n      dup2\n        /* \"#utility.yul\":4939:4959   */\n      sub\n        /* \"#utility.yul\":4935:4936   */\n      0x00\n        /* \"#utility.yul\":4924:4933   */\n      dup4\n        /* \"#utility.yul\":4920:4937   */\n      add\n        /* \"#utility.yul\":4913:4960   */\n      mstore\n        /* \"#utility.yul\":4977:5108   */\n      tag_178\n        /* \"#utility.yul\":5103:5107   */\n      dup2\n        /* \"#utility.yul\":4977:5108   */\n      tag_126\n      jump\t// in\n    tag_178:\n        /* \"#utility.yul\":4969:5108   */\n      swap1\n      pop\n        /* \"#utility.yul\":4696:5115   */\n      swap2\n      swap1\n      pop\n      jump\t// out\n        /* \"#utility.yul\":5121:5301   */\n    tag_127:\n        /* \"#utility.yul\":5169:5246   */\n      0x4e487b7100000000000000000000000000000000000000000000000000000000\n        /* \"#utility.yul\":5166:5167   */\n      0x00\n        /* \"#utility.yul\":5159:5247   */\n      mstore\n        /* \"#utility.yul\":5266:5270   */\n      0x11\n        /* \"#utility.yul\":5263:5264   */\n      0x04\n        /* \"#utility.yul\":5256:5271   */\n      mstore\n        /* \"#utility.yul\":5290:5294   */\n      0x24\n        /* \"#utility.yul\":5287:5288   */\n      0x00\n        /* \"#utility.yul\":5280:5295   */\n      revert\n        /* \"#utility.yul\":5307:5501   */\n    tag_86:\n        /* \"#utility.yul\":5347:5351   */\n      0x00\n        /* \"#utility.yul\":5367:5387   */\n      tag_181\n        /* \"#utility.yul\":5385:5386   */\n      dup3\n        /* \"#utility.yul\":5367:5387   */\n      tag_109\n      jump\t// in\n    tag_181:\n        /* \"#utility.yul\":5362:5387   */\n      swap2\n      pop\n        /* \"#utility.yul\":5401:5421   */\n      tag_182\n        /* \"#utility.yul\":5419:5420   */\n      dup4\n        /* \"#utility.yul\":5401:5421   */\n      tag_109\n      jump\t// in\n    tag_182:\n        /* \"#utility.yul\":5396:5421   */\n      swap3\n      pop\n        /* \"#utility.yul\":5445:5446   */\n      dup3\n        /* \"#utility.yul\":5442:5443   */\n      dup3\n        /* \"#utility.yul\":5438:5447   */\n      sub\n        /* \"#utility.yul\":5430:5447   */\n      swap1\n      pop\n        /* \"#utility.yul\":5469:5470   */\n      dup2\n        /* \"#utility.yul\":5463:5467   */\n      dup2\n        /* \"#utility.yul\":5460:5471   */\n      gt\n        /* \"#utility.yul\":5457:5494   */\n      iszero\n      tag_183\n      jumpi\n        /* \"#utility.yul\":5474:5492   */\n      tag_184\n      tag_127\n      jump\t// in\n    tag_184:\n        /* \"#utility.yul\":5457:5494   */\n    tag_183:\n        /* \"#utility.yul\":5307:5501   */\n      swap3\n      swap2\n      pop\n      pop\n      jump\t// out\n        /* \"#utility.yul\":5507:5679   */\n    tag_128:\n        /* \"#utility.yul\":5647:5671   */\n      0x4e6f7420456e6f7567682054696d652050617373656400000000000000000000\n        /* \"#utility.yul\":5643:5644   */\n      0x00\n        /* \"#utility.yul\":5635:5641   */\n      dup3\n        /* \"#utility.yul\":5631:5645   */\n      add\n        /* \"#utility.yul\":5624:5672   */\n      mstore\n        /* \"#utility.yul\":5507:5679   */\n      pop\n      jump\t// out\n        /* \"#utility.yul\":5685:6051   */\n    tag_129:\n        /* \"#utility.yul\":5827:5830   */\n      0x00\n        /* \"#utility.yul\":5848:5915   */\n      tag_187\n        /* \"#utility.yul\":5912:5914   */\n      0x16\n        /* \"#utility.yul\":5907:5910   */\n      dup4\n        /* \"#utility.yul\":5848:5915   */\n      tag_120\n      jump\t// in\n    tag_187:\n        /* \"#utility.yul\":5841:5915   */\n      swap2\n      pop\n        /* \"#utility.yul\":5924:6017   */\n      tag_188\n        /* \"#utility.yul\":6013:6016   */\n      dup3\n        /* \"#utility.yul\":5924:6017   */\n      tag_128\n      jump\t// in\n    tag_188:\n        /* \"#utility.yul\":6042:6044   */\n      0x20\n        /* \"#utility.yul\":6037:6040   */\n      dup3\n        /* \"#utility.yul\":6033:6045   */\n      add\n        /* \"#utility.yul\":6026:6045   */\n      swap1\n      pop\n        /* \"#utility.yul\":5685:6051   */\n      swap2\n      swap1\n      pop\n      jump\t// out\n        /* \"#utility.yul\":6057:6476   */\n    tag_89:\n        /* \"#utility.yul\":6223:6227   */\n      0x00\n        /* \"#utility.yul\":6261:6263   */\n      0x20\n        /* \"#utility.yul\":6250:6259   */\n      dup3\n        /* \"#utility.yul\":6246:6264   */\n      add\n        /* \"#utility.yul\":6238:6264   */\n      swap1\n      pop\n        /* \"#utility.yul\":6310:6319   */\n      dup2\n        /* \"#utility.yul\":6304:6308   */\n      dup2\n        /* \"#utility.yul\":6300:6320   */\n      sub\n        /* \"#utility.yul\":6296:6297   */\n      0x00\n        /* \"#utility.yul\":6285:6294   */\n      dup4\n        /* \"#utility.yul\":6281:6298   */\n      add\n        /* \"#utility.yul\":6274:6321   */\n      mstore\n        /* \"#utility.yul\":6338:6469   */\n      tag_190\n        /* \"#utility.yul\":6464:6468   */\n      dup2\n        /* \"#utility.yul\":6338:6469   */\n      tag_129\n      jump\t// in\n    tag_190:\n        /* \"#utility.yul\":6330:6469   */\n      swap1\n      pop\n        /* \"#utility.yul\":6057:6476   */\n      swap2\n      swap1\n      pop\n      jump\t// out\n        /* \"#utility.yul\":6482:6673   */\n    tag_91:\n        /* \"#utility.yul\":6522:6525   */\n      0x00\n        /* \"#utility.yul\":6541:6561   */\n      tag_192\n        /* \"#utility.yul\":6559:6560   */\n      dup3\n        /* \"#utility.yul\":6541:6561   */\n      tag_109\n      jump\t// in\n    tag_192:\n        /* \"#utility.yul\":6536:6561   */\n      swap2\n      pop\n        /* \"#utility.yul\":6575:6595   */\n      tag_193\n        /* \"#utility.yul\":6593:6594   */\n      dup4\n        /* \"#utility.yul\":6575:6595   */\n      tag_109\n      jump\t// in\n    tag_193:\n        /* \"#utility.yul\":6570:6595   */\n      swap3\n      pop\n        /* \"#utility.yul\":6618:6619   */\n      dup3\n        /* \"#utility.yul\":6615:6616   */\n      dup3\n        /* \"#utility.yul\":6611:6620   */\n      add\n        /* \"#utility.yul\":6604:6620   */\n      swap1\n      pop\n        /* \"#utility.yul\":6639:6642   */\n      dup1\n        /* \"#utility.yul\":6636:6637   */\n      dup3\n        /* \"#utility.yul\":6633:6643   */\n      gt\n        /* \"#utility.yul\":6630:6666   */\n      iszero\n      tag_194\n      jumpi\n        /* \"#utility.yul\":6646:6664   */\n      tag_195\n      tag_127\n      jump\t// in\n    tag_195:\n        /* \"#utility.yul\":6630:6666   */\n    tag_194:\n        /* \"#utility.yul\":6482:6673   */\n      swap3\n      swap2\n      pop\n      pop\n      jump\t// out\n        /* \"#utility.yul\":6679:6849   */\n    tag_130:\n        /* \"#utility.yul\":6819:6841   */\n      0x4d6f6e6579206c696d6974206578636565646564000000000000000000000000\n        /* \"#utility.yul\":6815:6816   */\n      0x00\n        /* \"#utility.yul\":6807:6813   */\n      dup3\n        /* \"#utility.yul\":6803:6817   */\n      add\n        /* \"#utility.yul\":6796:6842   */\n      mstore\n        /* \"#utility.yul\":6679:6849   */\n      pop\n      jump\t// out\n        /* \"#utility.yul\":6855:7221   */\n    tag_131:\n        /* \"#utility.yul\":6997:7000   */\n      0x00\n        /* \"#utility.yul\":7018:7085   */\n      tag_198\n        /* \"#utility.yul\":7082:7084   */\n      0x14\n        /* \"#utility.yul\":7077:7080   */\n      dup4\n        /* \"#utility.yul\":7018:7085   */\n      tag_120\n      jump\t// in\n    tag_198:\n        /* \"#utility.yul\":7011:7085   */\n      swap2\n      pop\n        /* \"#utility.yul\":7094:7187   */\n      tag_199\n        /* \"#utility.yul\":7183:7186   */\n      dup3\n        /* \"#utility.yul\":7094:7187   */\n      tag_130\n      jump\t// in\n    tag_199:\n        /* \"#utility.yul\":7212:7214   */\n      0x20\n        /* \"#utility.yul\":7207:7210   */\n      dup3\n        /* \"#utility.yul\":7203:7215   */\n      add\n        /* \"#utility.yul\":7196:7215   */\n      swap1\n      pop\n        /* \"#utility.yul\":6855:7221   */\n      swap2\n      swap1\n      pop\n      jump\t// out\n        /* \"#utility.yul\":7227:7646   */\n    tag_97:\n        /* \"#utility.yul\":7393:7397   */\n      0x00\n        /* \"#utility.yul\":7431:7433   */\n      0x20\n        /* \"#utility.yul\":7420:7429   */\n      dup3\n        /* \"#utility.yul\":7416:7434   */\n      add\n        /* \"#utility.yul\":7408:7434   */\n      swap1\n      pop\n        /* \"#utility.yul\":7480:7489   */\n      dup2\n        /* \"#utility.yul\":7474:7478   */\n      dup2\n        /* \"#utility.yul\":7470:7490   */\n      sub\n        /* \"#utility.yul\":7466:7467   */\n      0x00\n        /* \"#utility.yul\":7455:7464   */\n      dup4\n        /* \"#utility.yul\":7451:7468   */\n      add\n        /* \"#utility.yul\":7444:7491   */\n      mstore\n        /* \"#utility.yul\":7508:7639   */\n      tag_201\n        /* \"#utility.yul\":7634:7638   */\n      dup2\n        /* \"#utility.yul\":7508:7639   */\n      tag_131\n      jump\t// in\n    tag_201:\n        /* \"#utility.yul\":7500:7639   */\n      swap1\n      pop\n        /* \"#utility.yul\":7227:7646   */\n      swap2\n      swap1\n      pop\n      jump\t// out\n        /* \"#utility.yul\":7652:7822   */\n    tag_132:\n        /* \"#utility.yul\":7792:7814   */\n      0x4d6f6e6579204c696d6974206578636565646564000000000000000000000000\n        /* \"#utility.yul\":7788:7789   */\n      0x00\n        /* \"#utility.yul\":7780:7786   */\n      dup3\n        /* \"#utility.yul\":7776:7790   */\n      add\n        /* \"#utility.yul\":7769:7815   */\n      mstore\n        /* \"#utility.yul\":7652:7822   */\n      pop\n      jump\t// out\n        /* \"#utility.yul\":7828:8194   */\n    tag_133:\n        /* \"#utility.yul\":7970:7973   */\n      0x00\n        /* \"#utility.yul\":7991:8058   */\n      tag_204\n        /* \"#utility.yul\":8055:8057   */\n      0x14\n        /* \"#utility.yul\":8050:8053   */\n      dup4\n        /* \"#utility.yul\":7991:8058   */\n      tag_120\n      jump\t// in\n    tag_204:\n        /* \"#utility.yul\":7984:8058   */\n      swap2\n      pop\n        /* \"#utility.yul\":8067:8160   */\n      tag_205\n        /* \"#utility.yul\":8156:8159   */\n      dup3\n        /* \"#utility.yul\":8067:8160   */\n      tag_132\n      jump\t// in\n    tag_205:\n        /* \"#utility.yul\":8185:8187   */\n      0x20\n        /* \"#utility.yul\":8180:8183   */\n      dup3\n        /* \"#utility.yul\":8176:8188   */\n      add\n        /* \"#utility.yul\":8169:8188   */\n      swap1\n      pop\n        /* \"#utility.yul\":7828:8194   */\n      swap2\n      swap1\n      pop\n      jump\t// out\n        /* \"#utility.yul\":8200:8619   */\n    tag_104:\n        /* \"#utility.yul\":8366:8370   */\n      0x00\n        /* \"#utility.yul\":8404:8406   */\n      0x20\n        /* \"#utility.yul\":8393:8402   */\n      dup3\n        /* \"#utility.yul\":8389:8407   */\n      add\n        /* \"#utility.yul\":8381:8407   */\n      swap1\n      pop\n        /* \"#utility.yul\":8453:8462   */\n      dup2\n        /* \"#utility.yul\":8447:8451   */\n      dup2\n        /* \"#utility.yul\":8443:8463   */\n      sub\n        /* \"#utility.yul\":8439:8440   */\n      0x00\n        /* \"#utility.yul\":8428:8437   */\n      dup4\n        /* \"#utility.yul\":8424:8441   */\n      add\n        /* \"#utility.yul\":8417:8464   */\n      mstore\n        /* \"#utility.yul\":8481:8612   */\n      tag_207\n        /* \"#utility.yul\":8607:8611   */\n      dup2\n        /* \"#utility.yul\":8481:8612   */\n      tag_133\n      jump\t// in\n    tag_207:\n        /* \"#utility.yul\":8473:8612   */\n      swap1\n      pop\n        /* \"#utility.yul\":8200:8619   */\n      swap2\n      swap1\n      pop\n      jump\t// out\n\n    auxdata: 0xa264697066735822122012cee4192541a84b51ace3f8adc07259f9ca52f683786c00fe049238a5b388d364736f6c63430008100033\n}\n",
				"bytecode": {
					"linkReferences": {},
					"object": "608060405273ab8483f64d9c6d1ecf9b849ae677dd3315835cb2600160006101000a81548173ffffffffffffffffffffffffffffffffffffffff021916908373ffffffffffffffffffffffffffffffffffffffff160217905550734b20993bc481177ec7e8f571cecae8a9e22c02db600260006101000a81548173ffffffffffffffffffffffffffffffffffffffff021916908373ffffffffffffffffffffffffffffffffffffffff16021790555060006003556000600455600a6005553480156100c957600080fd5b50336000806101000a81548173ffffffffffffffffffffffffffffffffffffffff021916908373ffffffffffffffffffffffffffffffffffffffff160217905550610e42806101196000396000f3fe6080604052600436106100c25760003560e01c806372c37a7c1161007f57806384dff3811161005957806384dff38114610209578063a1f3f31b14610213578063e9c98e681461021d578063e9e717da1461025a576100c2565b806372c37a7c146101995780637634da4b146101c2578063848a88d8146101cc576100c2565b806312065fe0146100c75780631828983a146100f25780631b3f48421461012f5780632d90ae94146101395780633ff1e05b14610143578063457590c71461016e575b600080fd5b3480156100d357600080fd5b506100dc610285565b6040516100e991906109fb565b60405180910390f35b3480156100fe57600080fd5b5061011960048036038101906101149190610a79565b6102a4565b6040516101269190610ac1565b60405180910390f35b6101376102c4565b005b6101416102c6565b005b34801561014f57600080fd5b506101586103c5565b60405161016591906109fb565b60405180910390f35b34801561017a57600080fd5b506101836103cd565b60405161019091906109fb565b60405180910390f35b3480156101a557600080fd5b506101c060048036038101906101bb9190610a79565b61040e565b005b6101ca61053b565b005b3480156101d857600080fd5b506101f360048036038101906101ee9190610a79565b6107cc565b60405161020091906109fb565b60405180910390f35b6102116107e4565b005b61021b6108b7565b005b34801561022957600080fd5b50610244600480360381019061023f9190610a79565b610989565b60405161025191906109fb565b60405180910390f35b34801561026657600080fd5b5061026f6109a1565b60405161027c91906109fb565b60405180910390f35b60003373ffffffffffffffffffffffffffffffffffffffff1631905090565b60076020528060005260406000206000915054906101000a900460ff1681565b565b3373ffffffffffffffffffffffffffffffffffffffff1660008054906101000a900473ffffffffffffffffffffffffffffffffffffffff1673ffffffffffffffffffffffffffffffffffffffff1614610354576040517f08c379a000000000000000000000000000000000000000000000000000000000815260040161034b90610b39565b60405180910390fd5b60008054906101000a900473ffffffffffffffffffffffffffffffffffffffff1673ffffffffffffffffffffffffffffffffffffffff166108fc670de0b6b3a76400009081150290604051600060405180830381858888f193505050501580156103c2573d6000803e3d6000fd5b50565b600047905090565b6000600260009054906101000a900473ffffffffffffffffffffffffffffffffffffffff1673ffffffffffffffffffffffffffffffffffffffff1631905090565b3373ffffffffffffffffffffffffffffffffffffffff1660008054906101000a900473ffffffffffffffffffffffffffffffffffffffff1673ffffffffffffffffffffffffffffffffffffffff161461049c576040517f08c379a000000000000000000000000000000000000000000000000000000000815260040161049390610b39565b60405180910390fd5b6001600760008373ffffffffffffffffffffffffffffffffffffffff1673ffffffffffffffffffffffffffffffffffffffff16815260200190815260200160002060006101000a81548160ff02191690831515021790555042600860008373ffffffffffffffffffffffffffffffffffffffff1673ffffffffffffffffffffffffffffffffffffffff1681526020019081526020016000208190555050565b6004600660003373ffffffffffffffffffffffffffffffffffffffff1673ffffffffffffffffffffffffffffffffffffffff1681526020019081526020016000205411156105be576040517f08c379a00000000000000000000000000000000000000000000000000000000081526004016105b590610ba5565b60405180910390fd5b60011515600760003373ffffffffffffffffffffffffffffffffffffffff1673ffffffffffffffffffffffffffffffffffffffff16815260200190815260200160002060009054906101000a900460ff16151514610651576040517f08c379a000000000000000000000000000000000000000000000000000000000815260040161064890610c11565b60405180910390fd5b600554600860003373ffffffffffffffffffffffffffffffffffffffff1673ffffffffffffffffffffffffffffffffffffffff168152602001908152602001600020544261069f9190610c60565b10156106e0576040517f08c379a00000000000000000000000000000000000000000000000000000000081526004016106d790610ce0565b60405180910390fd5b6001600660003373ffffffffffffffffffffffffffffffffffffffff1673ffffffffffffffffffffffffffffffffffffffff16815260200190815260200160002060008282546107309190610d00565b925050819055503373ffffffffffffffffffffffffffffffffffffffff166108fc670de0b6b3a76400009081150290604051600060405180830381858888f19350505050158015610785573d6000803e3d6000fd5b5042600860003373ffffffffffffffffffffffffffffffffffffffff1673ffffffffffffffffffffffffffffffffffffffff16815260200190815260200160002081905550565b60066020528060005260406000206000915090505481565b6004600354111561082a576040517f08c379a000000000000000000000000000000000000000000000000000000000815260040161082190610d80565b60405180910390fd5b60016003600082825461083d9190610d00565b92505081905550600160009054906101000a900473ffffffffffffffffffffffffffffffffffffffff1673ffffffffffffffffffffffffffffffffffffffff166108fc670de0b6b3a76400009081150290604051600060405180830381858888f193505050501580156108b4573d6000803e3d6000fd5b50565b6004805411156108fc576040517f08c379a00000000000000000000000000000000000000000000000000000000081526004016108f390610dec565b60405180910390fd5b60016004600082825461090f9190610d00565b92505081905550600260009054906101000a900473ffffffffffffffffffffffffffffffffffffffff1673ffffffffffffffffffffffffffffffffffffffff166108fc670de0b6b3a76400009081150290604051600060405180830381858888f19350505050158015610986573d6000803e3d6000fd5b50565b60086020528060005260406000206000915090505481565b6000600160009054906101000a900473ffffffffffffffffffffffffffffffffffffffff1673ffffffffffffffffffffffffffffffffffffffff1631905090565b6000819050919050565b6109f5816109e2565b82525050565b6000602082019050610a1060008301846109ec565b92915050565b600080fd5b600073ffffffffffffffffffffffffffffffffffffffff82169050919050565b6000610a4682610a1b565b9050919050565b610a5681610a3b565b8114610a6157600080fd5b50565b600081359050610a7381610a4d565b92915050565b600060208284031215610a8f57610a8e610a16565b5b6000610a9d84828501610a64565b91505092915050565b60008115159050919050565b610abb81610aa6565b82525050565b6000602082019050610ad66000830184610ab2565b92915050565b600082825260208201905092915050565b7f4e6f7420417574686f72697a6564000000000000000000000000000000000000600082015250565b6000610b23600e83610adc565b9150610b2e82610aed565b602082019050919050565b60006020820190508181036000830152610b5281610b16565b9050919050565b7f456e6f75676820697320656e6f75676800000000000000000000000000000000600082015250565b6000610b8f601083610adc565b9150610b9a82610b59565b602082019050919050565b60006020820190508181036000830152610bbe81610b82565b9050919050565b7f55736572204e6f7420417574686f72697a656400000000000000000000000000600082015250565b6000610bfb601383610adc565b9150610c0682610bc5565b602082019050919050565b60006020820190508181036000830152610c2a81610bee565b9050919050565b7f4e487b7100000000000000000000000000000000000000000000000000000000600052601160045260246000fd5b6000610c6b826109e2565b9150610c76836109e2565b9250828203905081811115610c8e57610c8d610c31565b5b92915050565b7f4e6f7420456e6f7567682054696d652050617373656400000000000000000000600082015250565b6000610cca601683610adc565b9150610cd582610c94565b602082019050919050565b60006020820190508181036000830152610cf981610cbd565b9050919050565b6000610d0b826109e2565b9150610d16836109e2565b9250828201905080821115610d2e57610d2d610c31565b5b92915050565b7f4d6f6e6579206c696d6974206578636565646564000000000000000000000000600082015250565b6000610d6a601483610adc565b9150610d7582610d34565b602082019050919050565b60006020820190508181036000830152610d9981610d5d565b9050919050565b7f4d6f6e6579204c696d6974206578636565646564000000000000000000000000600082015250565b6000610dd6601483610adc565b9150610de182610da0565b602082019050919050565b60006020820190508181036000830152610e0581610dc9565b905091905056fea264697066735822122012cee4192541a84b51ace3f8adc07259f9ca52f683786c00fe049238a5b388d364736f6c63430008100033",
					"opcodes": "PUSH1 0x80 PUSH1 0x40 MSTORE PUSH20 0xAB8483F64D9C6D1ECF9B849AE677DD3315835CB2 PUSH1 0x1 PUSH1 0x0 PUSH2 0x100 EXP DUP2 SLOAD DUP2 PUSH20 0xFFFFFFFFFFFFFFFFFFFFFFFFFFFFFFFFFFFFFFFF MUL NOT AND SWAP1 DUP4 PUSH20 0xFFFFFFFFFFFFFFFFFFFFFFFFFFFFFFFFFFFFFFFF AND MUL OR SWAP1 SSTORE POP PUSH20 0x4B20993BC481177EC7E8F571CECAE8A9E22C02DB PUSH1 0x2 PUSH1 0x0 PUSH2 0x100 EXP DUP2 SLOAD DUP2 PUSH20 0xFFFFFFFFFFFFFFFFFFFFFFFFFFFFFFFFFFFFFFFF MUL NOT AND SWAP1 DUP4 PUSH20 0xFFFFFFFFFFFFFFFFFFFFFFFFFFFFFFFFFFFFFFFF AND MUL OR SWAP1 SSTORE POP PUSH1 0x0 PUSH1 0x3 SSTORE PUSH1 0x0 PUSH1 0x4 SSTORE PUSH1 0xA PUSH1 0x5 SSTORE CALLVALUE DUP1 ISZERO PUSH2 0xC9 JUMPI PUSH1 0x0 DUP1 REVERT JUMPDEST POP CALLER PUSH1 0x0 DUP1 PUSH2 0x100 EXP DUP2 SLOAD DUP2 PUSH20 0xFFFFFFFFFFFFFFFFFFFFFFFFFFFFFFFFFFFFFFFF MUL NOT AND SWAP1 DUP4 PUSH20 0xFFFFFFFFFFFFFFFFFFFFFFFFFFFFFFFFFFFFFFFF AND MUL OR SWAP1 SSTORE POP PUSH2 0xE42 DUP1 PUSH2 0x119 PUSH1 0x0 CODECOPY PUSH1 0x0 RETURN INVALID PUSH1 0x80 PUSH1 0x40 MSTORE PUSH1 0x4 CALLDATASIZE LT PUSH2 0xC2 JUMPI PUSH1 0x0 CALLDATALOAD PUSH1 0xE0 SHR DUP1 PUSH4 0x72C37A7C GT PUSH2 0x7F JUMPI DUP1 PUSH4 0x84DFF381 GT PUSH2 0x59 JUMPI DUP1 PUSH4 0x84DFF381 EQ PUSH2 0x209 JUMPI DUP1 PUSH4 0xA1F3F31B EQ PUSH2 0x213 JUMPI DUP1 PUSH4 0xE9C98E68 EQ PUSH2 0x21D JUMPI DUP1 PUSH4 0xE9E717DA EQ PUSH2 0x25A JUMPI PUSH2 0xC2 JUMP JUMPDEST DUP1 PUSH4 0x72C37A7C EQ PUSH2 0x199 JUMPI DUP1 PUSH4 0x7634DA4B EQ PUSH2 0x1C2 JUMPI DUP1 PUSH4 0x848A88D8 EQ PUSH2 0x1CC JUMPI PUSH2 0xC2 JUMP JUMPDEST DUP1 PUSH4 0x12065FE0 EQ PUSH2 0xC7 JUMPI DUP1 PUSH4 0x1828983A EQ PUSH2 0xF2 JUMPI DUP1 PUSH4 0x1B3F4842 EQ PUSH2 0x12F JUMPI DUP1 PUSH4 0x2D90AE94 EQ PUSH2 0x139 JUMPI DUP1 PUSH4 0x3FF1E05B EQ PUSH2 0x143 JUMPI DUP1 PUSH4 0x457590C7 EQ PUSH2 0x16E JUMPI JUMPDEST PUSH1 0x0 DUP1 REVERT JUMPDEST CALLVALUE DUP1 ISZERO PUSH2 0xD3 JUMPI PUSH1 0x0 DUP1 REVERT JUMPDEST POP PUSH2 0xDC PUSH2 0x285 JUMP JUMPDEST PUSH1 0x40 MLOAD PUSH2 0xE9 SWAP2 SWAP1 PUSH2 0x9FB JUMP JUMPDEST PUSH1 0x40 MLOAD DUP1 SWAP2 SUB SWAP1 RETURN JUMPDEST CALLVALUE DUP1 ISZERO PUSH2 0xFE JUMPI PUSH1 0x0 DUP1 REVERT JUMPDEST POP PUSH2 0x119 PUSH1 0x4 DUP1 CALLDATASIZE SUB DUP2 ADD SWAP1 PUSH2 0x114 SWAP2 SWAP1 PUSH2 0xA79 JUMP JUMPDEST PUSH2 0x2A4 JUMP JUMPDEST PUSH1 0x40 MLOAD PUSH2 0x126 SWAP2 SWAP1 PUSH2 0xAC1 JUMP JUMPDEST PUSH1 0x40 MLOAD DUP1 SWAP2 SUB SWAP1 RETURN JUMPDEST PUSH2 0x137 PUSH2 0x2C4 JUMP JUMPDEST STOP JUMPDEST PUSH2 0x141 PUSH2 0x2C6 JUMP JUMPDEST STOP JUMPDEST CALLVALUE DUP1 ISZERO PUSH2 0x14F JUMPI PUSH1 0x0 DUP1 REVERT JUMPDEST POP PUSH2 0x158 PUSH2 0x3C5 JUMP JUMPDEST PUSH1 0x40 MLOAD PUSH2 0x165 SWAP2 SWAP1 PUSH2 0x9FB JUMP JUMPDEST PUSH1 0x40 MLOAD DUP1 SWAP2 SUB SWAP1 RETURN JUMPDEST CALLVALUE DUP1 ISZERO PUSH2 0x17A JUMPI PUSH1 0x0 DUP1 REVERT JUMPDEST POP PUSH2 0x183 PUSH2 0x3CD JUMP JUMPDEST PUSH1 0x40 MLOAD PUSH2 0x190 SWAP2 SWAP1 PUSH2 0x9FB JUMP JUMPDEST PUSH1 0x40 MLOAD DUP1 SWAP2 SUB SWAP1 RETURN JUMPDEST CALLVALUE DUP1 ISZERO PUSH2 0x1A5 JUMPI PUSH1 0x0 DUP1 REVERT JUMPDEST POP PUSH2 0x1C0 PUSH1 0x4 DUP1 CALLDATASIZE SUB DUP2 ADD SWAP1 PUSH2 0x1BB SWAP2 SWAP1 PUSH2 0xA79 JUMP JUMPDEST PUSH2 0x40E JUMP JUMPDEST STOP JUMPDEST PUSH2 0x1CA PUSH2 0x53B JUMP JUMPDEST STOP JUMPDEST CALLVALUE DUP1 ISZERO PUSH2 0x1D8 JUMPI PUSH1 0x0 DUP1 REVERT JUMPDEST POP PUSH2 0x1F3 PUSH1 0x4 DUP1 CALLDATASIZE SUB DUP2 ADD SWAP1 PUSH2 0x1EE SWAP2 SWAP1 PUSH2 0xA79 JUMP JUMPDEST PUSH2 0x7CC JUMP JUMPDEST PUSH1 0x40 MLOAD PUSH2 0x200 SWAP2 SWAP1 PUSH2 0x9FB JUMP JUMPDEST PUSH1 0x40 MLOAD DUP1 SWAP2 SUB SWAP1 RETURN JUMPDEST PUSH2 0x211 PUSH2 0x7E4 JUMP JUMPDEST STOP JUMPDEST PUSH2 0x21B PUSH2 0x8B7 JUMP JUMPDEST STOP JUMPDEST CALLVALUE DUP1 ISZERO PUSH2 0x229 JUMPI PUSH1 0x0 DUP1 REVERT JUMPDEST POP PUSH2 0x244 PUSH1 0x4 DUP1 CALLDATASIZE SUB DUP2 ADD SWAP1 PUSH2 0x23F SWAP2 SWAP1 PUSH2 0xA79 JUMP JUMPDEST PUSH2 0x989 JUMP JUMPDEST PUSH1 0x40 MLOAD PUSH2 0x251 SWAP2 SWAP1 PUSH2 0x9FB JUMP JUMPDEST PUSH1 0x40 MLOAD DUP1 SWAP2 SUB SWAP1 RETURN JUMPDEST CALLVALUE DUP1 ISZERO PUSH2 0x266 JUMPI PUSH1 0x0 DUP1 REVERT JUMPDEST POP PUSH2 0x26F PUSH2 0x9A1 JUMP JUMPDEST PUSH1 0x40 MLOAD PUSH2 0x27C SWAP2 SWAP1 PUSH2 0x9FB JUMP JUMPDEST PUSH1 0x40 MLOAD DUP1 SWAP2 SUB SWAP1 RETURN JUMPDEST PUSH1 0x0 CALLER PUSH20 0xFFFFFFFFFFFFFFFFFFFFFFFFFFFFFFFFFFFFFFFF AND BALANCE SWAP1 POP SWAP1 JUMP JUMPDEST PUSH1 0x7 PUSH1 0x20 MSTORE DUP1 PUSH1 0x0 MSTORE PUSH1 0x40 PUSH1 0x0 KECCAK256 PUSH1 0x0 SWAP2 POP SLOAD SWAP1 PUSH2 0x100 EXP SWAP1 DIV PUSH1 0xFF AND DUP2 JUMP JUMPDEST JUMP JUMPDEST CALLER PUSH20 0xFFFFFFFFFFFFFFFFFFFFFFFFFFFFFFFFFFFFFFFF AND PUSH1 0x0 DUP1 SLOAD SWAP1 PUSH2 0x100 EXP SWAP1 DIV PUSH20 0xFFFFFFFFFFFFFFFFFFFFFFFFFFFFFFFFFFFFFFFF AND PUSH20 0xFFFFFFFFFFFFFFFFFFFFFFFFFFFFFFFFFFFFFFFF AND EQ PUSH2 0x354 JUMPI PUSH1 0x40 MLOAD PUSH32 0x8C379A000000000000000000000000000000000000000000000000000000000 DUP2 MSTORE PUSH1 0x4 ADD PUSH2 0x34B SWAP1 PUSH2 0xB39 JUMP JUMPDEST PUSH1 0x40 MLOAD DUP1 SWAP2 SUB SWAP1 REVERT JUMPDEST PUSH1 0x0 DUP1 SLOAD SWAP1 PUSH2 0x100 EXP SWAP1 DIV PUSH20 0xFFFFFFFFFFFFFFFFFFFFFFFFFFFFFFFFFFFFFFFF AND PUSH20 0xFFFFFFFFFFFFFFFFFFFFFFFFFFFFFFFFFFFFFFFF AND PUSH2 0x8FC PUSH8 0xDE0B6B3A7640000 SWAP1 DUP2 ISZERO MUL SWAP1 PUSH1 0x40 MLOAD PUSH1 0x0 PUSH1 0x40 MLOAD DUP1 DUP4 SUB DUP2 DUP6 DUP9 DUP9 CALL SWAP4 POP POP POP POP ISZERO DUP1 ISZERO PUSH2 0x3C2 JUMPI RETURNDATASIZE PUSH1 0x0 DUP1 RETURNDATACOPY RETURNDATASIZE PUSH1 0x0 REVERT JUMPDEST POP JUMP JUMPDEST PUSH1 0x0 SELFBALANCE SWAP1 POP SWAP1 JUMP JUMPDEST PUSH1 0x0 PUSH1 0x2 PUSH1 0x0 SWAP1 SLOAD SWAP1 PUSH2 0x100 EXP SWAP1 DIV PUSH20 0xFFFFFFFFFFFFFFFFFFFFFFFFFFFFFFFFFFFFFFFF AND PUSH20 0xFFFFFFFFFFFFFFFFFFFFFFFFFFFFFFFFFFFFFFFF AND BALANCE SWAP1 POP SWAP1 JUMP JUMPDEST CALLER PUSH20 0xFFFFFFFFFFFFFFFFFFFFFFFFFFFFFFFFFFFFFFFF AND PUSH1 0x0 DUP1 SLOAD SWAP1 PUSH2 0x100 EXP SWAP1 DIV PUSH20 0xFFFFFFFFFFFFFFFFFFFFFFFFFFFFFFFFFFFFFFFF AND PUSH20 0xFFFFFFFFFFFFFFFFFFFFFFFFFFFFFFFFFFFFFFFF AND EQ PUSH2 0x49C JUMPI PUSH1 0x40 MLOAD PUSH32 0x8C379A000000000000000000000000000000000000000000000000000000000 DUP2 MSTORE PUSH1 0x4 ADD PUSH2 0x493 SWAP1 PUSH2 0xB39 JUMP JUMPDEST PUSH1 0x40 MLOAD DUP1 SWAP2 SUB SWAP1 REVERT JUMPDEST PUSH1 0x1 PUSH1 0x7 PUSH1 0x0 DUP4 PUSH20 0xFFFFFFFFFFFFFFFFFFFFFFFFFFFFFFFFFFFFFFFF AND PUSH20 0xFFFFFFFFFFFFFFFFFFFFFFFFFFFFFFFFFFFFFFFF AND DUP2 MSTORE PUSH1 0x20 ADD SWAP1 DUP2 MSTORE PUSH1 0x20 ADD PUSH1 0x0 KECCAK256 PUSH1 0x0 PUSH2 0x100 EXP DUP2 SLOAD DUP2 PUSH1 0xFF MUL NOT AND SWAP1 DUP4 ISZERO ISZERO MUL OR SWAP1 SSTORE POP TIMESTAMP PUSH1 0x8 PUSH1 0x0 DUP4 PUSH20 0xFFFFFFFFFFFFFFFFFFFFFFFFFFFFFFFFFFFFFFFF AND PUSH20 0xFFFFFFFFFFFFFFFFFFFFFFFFFFFFFFFFFFFFFFFF AND DUP2 MSTORE PUSH1 0x20 ADD SWAP1 DUP2 MSTORE PUSH1 0x20 ADD PUSH1 0x0 KECCAK256 DUP2 SWAP1 SSTORE POP POP JUMP JUMPDEST PUSH1 0x4 PUSH1 0x6 PUSH1 0x0 CALLER PUSH20 0xFFFFFFFFFFFFFFFFFFFFFFFFFFFFFFFFFFFFFFFF AND PUSH20 0xFFFFFFFFFFFFFFFFFFFFFFFFFFFFFFFFFFFFFFFF AND DUP2 MSTORE PUSH1 0x20 ADD SWAP1 DUP2 MSTORE PUSH1 0x20 ADD PUSH1 0x0 KECCAK256 SLOAD GT ISZERO PUSH2 0x5BE JUMPI PUSH1 0x40 MLOAD PUSH32 0x8C379A000000000000000000000000000000000000000000000000000000000 DUP2 MSTORE PUSH1 0x4 ADD PUSH2 0x5B5 SWAP1 PUSH2 0xBA5 JUMP JUMPDEST PUSH1 0x40 MLOAD DUP1 SWAP2 SUB SWAP1 REVERT JUMPDEST PUSH1 0x1 ISZERO ISZERO PUSH1 0x7 PUSH1 0x0 CALLER PUSH20 0xFFFFFFFFFFFFFFFFFFFFFFFFFFFFFFFFFFFFFFFF AND PUSH20 0xFFFFFFFFFFFFFFFFFFFFFFFFFFFFFFFFFFFFFFFF AND DUP2 MSTORE PUSH1 0x20 ADD SWAP1 DUP2 MSTORE PUSH1 0x20 ADD PUSH1 0x0 KECCAK256 PUSH1 0x0 SWAP1 SLOAD SWAP1 PUSH2 0x100 EXP SWAP1 DIV PUSH1 0xFF AND ISZERO ISZERO EQ PUSH2 0x651 JUMPI PUSH1 0x40 MLOAD PUSH32 0x8C379A000000000000000000000000000000000000000000000000000000000 DUP2 MSTORE PUSH1 0x4 ADD PUSH2 0x648 SWAP1 PUSH2 0xC11 JUMP JUMPDEST PUSH1 0x40 MLOAD DUP1 SWAP2 SUB SWAP1 REVERT JUMPDEST PUSH1 0x5 SLOAD PUSH1 0x8 PUSH1 0x0 CALLER PUSH20 0xFFFFFFFFFFFFFFFFFFFFFFFFFFFFFFFFFFFFFFFF AND PUSH20 0xFFFFFFFFFFFFFFFFFFFFFFFFFFFFFFFFFFFFFFFF AND DUP2 MSTORE PUSH1 0x20 ADD SWAP1 DUP2 MSTORE PUSH1 0x20 ADD PUSH1 0x0 KECCAK256 SLOAD TIMESTAMP PUSH2 0x69F SWAP2 SWAP1 PUSH2 0xC60 JUMP JUMPDEST LT ISZERO PUSH2 0x6E0 JUMPI PUSH1 0x40 MLOAD PUSH32 0x8C379A000000000000000000000000000000000000000000000000000000000 DUP2 MSTORE PUSH1 0x4 ADD PUSH2 0x6D7 SWAP1 PUSH2 0xCE0 JUMP JUMPDEST PUSH1 0x40 MLOAD DUP1 SWAP2 SUB SWAP1 REVERT JUMPDEST PUSH1 0x1 PUSH1 0x6 PUSH1 0x0 CALLER PUSH20 0xFFFFFFFFFFFFFFFFFFFFFFFFFFFFFFFFFFFFFFFF AND PUSH20 0xFFFFFFFFFFFFFFFFFFFFFFFFFFFFFFFFFFFFFFFF AND DUP2 MSTORE PUSH1 0x20 ADD SWAP1 DUP2 MSTORE PUSH1 0x20 ADD PUSH1 0x0 KECCAK256 PUSH1 0x0 DUP3 DUP3 SLOAD PUSH2 0x730 SWAP2 SWAP1 PUSH2 0xD00 JUMP JUMPDEST SWAP3 POP POP DUP2 SWAP1 SSTORE POP CALLER PUSH20 0xFFFFFFFFFFFFFFFFFFFFFFFFFFFFFFFFFFFFFFFF AND PUSH2 0x8FC PUSH8 0xDE0B6B3A7640000 SWAP1 DUP2 ISZERO MUL SWAP1 PUSH1 0x40 MLOAD PUSH1 0x0 PUSH1 0x40 MLOAD DUP1 DUP4 SUB DUP2 DUP6 DUP9 DUP9 CALL SWAP4 POP POP POP POP ISZERO DUP1 ISZERO PUSH2 0x785 JUMPI RETURNDATASIZE PUSH1 0x0 DUP1 RETURNDATACOPY RETURNDATASIZE PUSH1 0x0 REVERT JUMPDEST POP TIMESTAMP PUSH1 0x8 PUSH1 0x0 CALLER PUSH20 0xFFFFFFFFFFFFFFFFFFFFFFFFFFFFFFFFFFFFFFFF AND PUSH20 0xFFFFFFFFFFFFFFFFFFFFFFFFFFFFFFFFFFFFFFFF AND DUP2 MSTORE PUSH1 0x20 ADD SWAP1 DUP2 MSTORE PUSH1 0x20 ADD PUSH1 0x0 KECCAK256 DUP2 SWAP1 SSTORE POP JUMP JUMPDEST PUSH1 0x6 PUSH1 0x20 MSTORE DUP1 PUSH1 0x0 MSTORE PUSH1 0x40 PUSH1 0x0 KECCAK256 PUSH1 0x0 SWAP2 POP SWAP1 POP SLOAD DUP2 JUMP JUMPDEST PUSH1 0x4 PUSH1 0x3 SLOAD GT ISZERO PUSH2 0x82A JUMPI PUSH1 0x40 MLOAD PUSH32 0x8C379A000000000000000000000000000000000000000000000000000000000 DUP2 MSTORE PUSH1 0x4 ADD PUSH2 0x821 SWAP1 PUSH2 0xD80 JUMP JUMPDEST PUSH1 0x40 MLOAD DUP1 SWAP2 SUB SWAP1 REVERT JUMPDEST PUSH1 0x1 PUSH1 0x3 PUSH1 0x0 DUP3 DUP3 SLOAD PUSH2 0x83D SWAP2 SWAP1 PUSH2 0xD00 JUMP JUMPDEST SWAP3 POP POP DUP2 SWAP1 SSTORE POP PUSH1 0x1 PUSH1 0x0 SWAP1 SLOAD SWAP1 PUSH2 0x100 EXP SWAP1 DIV PUSH20 0xFFFFFFFFFFFFFFFFFFFFFFFFFFFFFFFFFFFFFFFF AND PUSH20 0xFFFFFFFFFFFFFFFFFFFFFFFFFFFFFFFFFFFFFFFF AND PUSH2 0x8FC PUSH8 0xDE0B6B3A7640000 SWAP1 DUP2 ISZERO MUL SWAP1 PUSH1 0x40 MLOAD PUSH1 0x0 PUSH1 0x40 MLOAD DUP1 DUP4 SUB DUP2 DUP6 DUP9 DUP9 CALL SWAP4 POP POP POP POP ISZERO DUP1 ISZERO PUSH2 0x8B4 JUMPI RETURNDATASIZE PUSH1 0x0 DUP1 RETURNDATACOPY RETURNDATASIZE PUSH1 0x0 REVERT JUMPDEST POP JUMP JUMPDEST PUSH1 0x4 DUP1 SLOAD GT ISZERO PUSH2 0x8FC JUMPI PUSH1 0x40 MLOAD PUSH32 0x8C379A000000000000000000000000000000000000000000000000000000000 DUP2 MSTORE PUSH1 0x4 ADD PUSH2 0x8F3 SWAP1 PUSH2 0xDEC JUMP JUMPDEST PUSH1 0x40 MLOAD DUP1 SWAP2 SUB SWAP1 REVERT JUMPDEST PUSH1 0x1 PUSH1 0x4 PUSH1 0x0 DUP3 DUP3 SLOAD PUSH2 0x90F SWAP2 SWAP1 PUSH2 0xD00 JUMP JUMPDEST SWAP3 POP POP DUP2 SWAP1 SSTORE POP PUSH1 0x2 PUSH1 0x0 SWAP1 SLOAD SWAP1 PUSH2 0x100 EXP SWAP1 DIV PUSH20 0xFFFFFFFFFFFFFFFFFFFFFFFFFFFFFFFFFFFFFFFF AND PUSH20 0xFFFFFFFFFFFFFFFFFFFFFFFFFFFFFFFFFFFFFFFF AND PUSH2 0x8FC PUSH8 0xDE0B6B3A7640000 SWAP1 DUP2 ISZERO MUL SWAP1 PUSH1 0x40 MLOAD PUSH1 0x0 PUSH1 0x40 MLOAD DUP1 DUP4 SUB DUP2 DUP6 DUP9 DUP9 CALL SWAP4 POP POP POP POP ISZERO DUP1 ISZERO PUSH2 0x986 JUMPI RETURNDATASIZE PUSH1 0x0 DUP1 RETURNDATACOPY RETURNDATASIZE PUSH1 0x0 REVERT JUMPDEST POP JUMP JUMPDEST PUSH1 0x8 PUSH1 0x20 MSTORE DUP1 PUSH1 0x0 MSTORE PUSH1 0x40 PUSH1 0x0 KECCAK256 PUSH1 0x0 SWAP2 POP SWAP1 POP SLOAD DUP2 JUMP JUMPDEST PUSH1 0x0 PUSH1 0x1 PUSH1 0x0 SWAP1 SLOAD SWAP1 PUSH2 0x100 EXP SWAP1 DIV PUSH20 0xFFFFFFFFFFFFFFFFFFFFFFFFFFFFFFFFFFFFFFFF AND PUSH20 0xFFFFFFFFFFFFFFFFFFFFFFFFFFFFFFFFFFFFFFFF AND BALANCE SWAP1 POP SWAP1 JUMP JUMPDEST PUSH1 0x0 DUP2 SWAP1 POP SWAP2 SWAP1 POP JUMP JUMPDEST PUSH2 0x9F5 DUP2 PUSH2 0x9E2 JUMP JUMPDEST DUP3 MSTORE POP POP JUMP JUMPDEST PUSH1 0x0 PUSH1 0x20 DUP3 ADD SWAP1 POP PUSH2 0xA10 PUSH1 0x0 DUP4 ADD DUP5 PUSH2 0x9EC JUMP JUMPDEST SWAP3 SWAP2 POP POP JUMP JUMPDEST PUSH1 0x0 DUP1 REVERT JUMPDEST PUSH1 0x0 PUSH20 0xFFFFFFFFFFFFFFFFFFFFFFFFFFFFFFFFFFFFFFFF DUP3 AND SWAP1 POP SWAP2 SWAP1 POP JUMP JUMPDEST PUSH1 0x0 PUSH2 0xA46 DUP3 PUSH2 0xA1B JUMP JUMPDEST SWAP1 POP SWAP2 SWAP1 POP JUMP JUMPDEST PUSH2 0xA56 DUP2 PUSH2 0xA3B JUMP JUMPDEST DUP2 EQ PUSH2 0xA61 JUMPI PUSH1 0x0 DUP1 REVERT JUMPDEST POP JUMP JUMPDEST PUSH1 0x0 DUP2 CALLDATALOAD SWAP1 POP PUSH2 0xA73 DUP2 PUSH2 0xA4D JUMP JUMPDEST SWAP3 SWAP2 POP POP JUMP JUMPDEST PUSH1 0x0 PUSH1 0x20 DUP3 DUP5 SUB SLT ISZERO PUSH2 0xA8F JUMPI PUSH2 0xA8E PUSH2 0xA16 JUMP JUMPDEST JUMPDEST PUSH1 0x0 PUSH2 0xA9D DUP5 DUP3 DUP6 ADD PUSH2 0xA64 JUMP JUMPDEST SWAP2 POP POP SWAP3 SWAP2 POP POP JUMP JUMPDEST PUSH1 0x0 DUP2 ISZERO ISZERO SWAP1 POP SWAP2 SWAP1 POP JUMP JUMPDEST PUSH2 0xABB DUP2 PUSH2 0xAA6 JUMP JUMPDEST DUP3 MSTORE POP POP JUMP JUMPDEST PUSH1 0x0 PUSH1 0x20 DUP3 ADD SWAP1 POP PUSH2 0xAD6 PUSH1 0x0 DUP4 ADD DUP5 PUSH2 0xAB2 JUMP JUMPDEST SWAP3 SWAP2 POP POP JUMP JUMPDEST PUSH1 0x0 DUP3 DUP3 MSTORE PUSH1 0x20 DUP3 ADD SWAP1 POP SWAP3 SWAP2 POP POP JUMP JUMPDEST PUSH32 0x4E6F7420417574686F72697A6564000000000000000000000000000000000000 PUSH1 0x0 DUP3 ADD MSTORE POP JUMP JUMPDEST PUSH1 0x0 PUSH2 0xB23 PUSH1 0xE DUP4 PUSH2 0xADC JUMP JUMPDEST SWAP2 POP PUSH2 0xB2E DUP3 PUSH2 0xAED JUMP JUMPDEST PUSH1 0x20 DUP3 ADD SWAP1 POP SWAP2 SWAP1 POP JUMP JUMPDEST PUSH1 0x0 PUSH1 0x20 DUP3 ADD SWAP1 POP DUP2 DUP2 SUB PUSH1 0x0 DUP4 ADD MSTORE PUSH2 0xB52 DUP2 PUSH2 0xB16 JUMP JUMPDEST SWAP1 POP SWAP2 SWAP1 POP JUMP JUMPDEST PUSH32 0x456E6F75676820697320656E6F75676800000000000000000000000000000000 PUSH1 0x0 DUP3 ADD MSTORE POP JUMP JUMPDEST PUSH1 0x0 PUSH2 0xB8F PUSH1 0x10 DUP4 PUSH2 0xADC JUMP JUMPDEST SWAP2 POP PUSH2 0xB9A DUP3 PUSH2 0xB59 JUMP JUMPDEST PUSH1 0x20 DUP3 ADD SWAP1 POP SWAP2 SWAP1 POP JUMP JUMPDEST PUSH1 0x0 PUSH1 0x20 DUP3 ADD SWAP1 POP DUP2 DUP2 SUB PUSH1 0x0 DUP4 ADD MSTORE PUSH2 0xBBE DUP2 PUSH2 0xB82 JUMP JUMPDEST SWAP1 POP SWAP2 SWAP1 POP JUMP JUMPDEST PUSH32 0x55736572204E6F7420417574686F72697A656400000000000000000000000000 PUSH1 0x0 DUP3 ADD MSTORE POP JUMP JUMPDEST PUSH1 0x0 PUSH2 0xBFB PUSH1 0x13 DUP4 PUSH2 0xADC JUMP JUMPDEST SWAP2 POP PUSH2 0xC06 DUP3 PUSH2 0xBC5 JUMP JUMPDEST PUSH1 0x20 DUP3 ADD SWAP1 POP SWAP2 SWAP1 POP JUMP JUMPDEST PUSH1 0x0 PUSH1 0x20 DUP3 ADD SWAP1 POP DUP2 DUP2 SUB PUSH1 0x0 DUP4 ADD MSTORE PUSH2 0xC2A DUP2 PUSH2 0xBEE JUMP JUMPDEST SWAP1 POP SWAP2 SWAP1 POP JUMP JUMPDEST PUSH32 0x4E487B7100000000000000000000000000000000000000000000000000000000 PUSH1 0x0 MSTORE PUSH1 0x11 PUSH1 0x4 MSTORE PUSH1 0x24 PUSH1 0x0 REVERT JUMPDEST PUSH1 0x0 PUSH2 0xC6B DUP3 PUSH2 0x9E2 JUMP JUMPDEST SWAP2 POP PUSH2 0xC76 DUP4 PUSH2 0x9E2 JUMP JUMPDEST SWAP3 POP DUP3 DUP3 SUB SWAP1 POP DUP2 DUP2 GT ISZERO PUSH2 0xC8E JUMPI PUSH2 0xC8D PUSH2 0xC31 JUMP JUMPDEST JUMPDEST SWAP3 SWAP2 POP POP JUMP JUMPDEST PUSH32 0x4E6F7420456E6F7567682054696D652050617373656400000000000000000000 PUSH1 0x0 DUP3 ADD MSTORE POP JUMP JUMPDEST PUSH1 0x0 PUSH2 0xCCA PUSH1 0x16 DUP4 PUSH2 0xADC JUMP JUMPDEST SWAP2 POP PUSH2 0xCD5 DUP3 PUSH2 0xC94 JUMP JUMPDEST PUSH1 0x20 DUP3 ADD SWAP1 POP SWAP2 SWAP1 POP JUMP JUMPDEST PUSH1 0x0 PUSH1 0x20 DUP3 ADD SWAP1 POP DUP2 DUP2 SUB PUSH1 0x0 DUP4 ADD MSTORE PUSH2 0xCF9 DUP2 PUSH2 0xCBD JUMP JUMPDEST SWAP1 POP SWAP2 SWAP1 POP JUMP JUMPDEST PUSH1 0x0 PUSH2 0xD0B DUP3 PUSH2 0x9E2 JUMP JUMPDEST SWAP2 POP PUSH2 0xD16 DUP4 PUSH2 0x9E2 JUMP JUMPDEST SWAP3 POP DUP3 DUP3 ADD SWAP1 POP DUP1 DUP3 GT ISZERO PUSH2 0xD2E JUMPI PUSH2 0xD2D PUSH2 0xC31 JUMP JUMPDEST JUMPDEST SWAP3 SWAP2 POP POP JUMP JUMPDEST PUSH32 0x4D6F6E6579206C696D6974206578636565646564000000000000000000000000 PUSH1 0x0 DUP3 ADD MSTORE POP JUMP JUMPDEST PUSH1 0x0 PUSH2 0xD6A PUSH1 0x14 DUP4 PUSH2 0xADC JUMP JUMPDEST SWAP2 POP PUSH2 0xD75 DUP3 PUSH2 0xD34 JUMP JUMPDEST PUSH1 0x20 DUP3 ADD SWAP1 POP SWAP2 SWAP1 POP JUMP JUMPDEST PUSH1 0x0 PUSH1 0x20 DUP3 ADD SWAP1 POP DUP2 DUP2 SUB PUSH1 0x0 DUP4 ADD MSTORE PUSH2 0xD99 DUP2 PUSH2 0xD5D JUMP JUMPDEST SWAP1 POP SWAP2 SWAP1 POP JUMP JUMPDEST PUSH32 0x4D6F6E6579204C696D6974206578636565646564000000000000000000000000 PUSH1 0x0 DUP3 ADD MSTORE POP JUMP JUMPDEST PUSH1 0x0 PUSH2 0xDD6 PUSH1 0x14 DUP4 PUSH2 0xADC JUMP JUMPDEST SWAP2 POP PUSH2 0xDE1 DUP3 PUSH2 0xDA0 JUMP JUMPDEST PUSH1 0x20 DUP3 ADD SWAP1 POP SWAP2 SWAP1 POP JUMP JUMPDEST PUSH1 0x0 PUSH1 0x20 DUP3 ADD SWAP1 POP DUP2 DUP2 SUB PUSH1 0x0 DUP4 ADD MSTORE PUSH2 0xE05 DUP2 PUSH2 0xDC9 JUMP JUMPDEST SWAP1 POP SWAP2 SWAP1 POP JUMP INVALID LOG2 PUSH5 0x6970667358 0x22 SLT KECCAK256 SLT 0xCE 0xE4 NOT 0x25 COINBASE 0xA8 0x4B MLOAD 0xAC 0xE3 0xF8 0xAD 0xC0 PUSH19 0x59F9CA52F683786C00FE049238A5B388D36473 PUSH16 0x6C634300081000330000000000000000 "
				},
				"gasEstimates": {
					"creation": {
						"codeDepositCost": "730000",
						"executionCost": "105684",
						"totalCost": "835684"
					},
					"external": {
						"addMoney()": "165",
						"authorizeAUser(address)": "49205",
						"authorizedUsers(address)": "2868",
						"family(address)": "2881",
						"getBalance()": "2943",
						"payLakhan()": "infinite",
						"payRam()": "infinite",
						"timestamps(address)": "2880",
						"transferMoneyToFamily()": "infinite",
						"transferToOwner()": "infinite",
						"viewBalance()": "428",
						"viewLakhanBalance()": "5190",
						"viewRamBalance()": "5167"
					}
				},
				"methodIdentifiers": {
					"addMoney()": "1b3f4842",
					"authorizeAUser(address)": "72c37a7c",
					"authorizedUsers(address)": "1828983a",
					"family(address)": "848a88d8",
					"getBalance()": "12065fe0",
					"payLakhan()": "a1f3f31b",
					"payRam()": "84dff381",
					"timestamps(address)": "e9c98e68",
					"transferMoneyToFamily()": "7634da4b",
					"transferToOwner()": "2d90ae94",
					"viewBalance()": "3ff1e05b",
					"viewLakhanBalance()": "457590c7",
					"viewRamBalance()": "e9e717da"
				}
			},
			"storageLayout": {
				"storage": [
					{
						"astId": 3,
						"contract": "contracts/PS.sol:PS",
						"label": "owner",
						"offset": 0,
						"slot": "0",
						"type": "t_address_payable"
					},
					{
						"astId": 9,
						"contract": "contracts/PS.sol:PS",
						"label": "ram",
						"offset": 0,
						"slot": "1",
						"type": "t_address_payable"
					},
					{
						"astId": 15,
						"contract": "contracts/PS.sol:PS",
						"label": "lakhan",
						"offset": 0,
						"slot": "2",
						"type": "t_address_payable"
					},
					{
						"astId": 18,
						"contract": "contracts/PS.sol:PS",
						"label": "ramMoney",
						"offset": 0,
						"slot": "3",
						"type": "t_uint256"
					},
					{
						"astId": 21,
						"contract": "contracts/PS.sol:PS",
						"label": "lakhanMoney",
						"offset": 0,
						"slot": "4",
						"type": "t_uint256"
					},
					{
						"astId": 24,
						"contract": "contracts/PS.sol:PS",
						"label": "timeToWithdraw",
						"offset": 0,
						"slot": "5",
						"type": "t_uint256"
					},
					{
						"astId": 28,
						"contract": "contracts/PS.sol:PS",
						"label": "family",
						"offset": 0,
						"slot": "6",
						"type": "t_mapping(t_address,t_uint256)"
					},
					{
						"astId": 32,
						"contract": "contracts/PS.sol:PS",
						"label": "authorizedUsers",
						"offset": 0,
						"slot": "7",
						"type": "t_mapping(t_address,t_bool)"
					},
					{
						"astId": 36,
						"contract": "contracts/PS.sol:PS",
						"label": "timestamps",
						"offset": 0,
						"slot": "8",
						"type": "t_mapping(t_address,t_uint256)"
					}
				],
				"types": {
					"t_address": {
						"encoding": "inplace",
						"label": "address",
						"numberOfBytes": "20"
					},
					"t_address_payable": {
						"encoding": "inplace",
						"label": "address payable",
						"numberOfBytes": "20"
					},
					"t_bool": {
						"encoding": "inplace",
						"label": "bool",
						"numberOfBytes": "1"
					},
					"t_mapping(t_address,t_bool)": {
						"encoding": "mapping",
						"key": "t_address",
						"label": "mapping(address => bool)",
						"numberOfBytes": "32",
						"value": "t_bool"
					},
					"t_mapping(t_address,t_uint256)": {
						"encoding": "mapping",
						"key": "t_address",
						"label": "mapping(address => uint256)",
						"numberOfBytes": "32",
						"value": "t_uint256"
					},
					"t_uint256": {
						"encoding": "inplace",
						"label": "uint256",
						"numberOfBytes": "32"
					}
				}
			},
			"userdoc": {
				"kind": "user",
				"methods": {},
				"version": 1
			}
		}
	}
}